:020000040800F2
:1000000000A00020E9160008311700083117000889
:1000100031170008311700083117000800000000F0
:100020000000000000000000000000003117000880
:1000300031170008000000003117000831170008D0
:1000400000000000000000000000000000000000B0
:1000500000000000000000000000000000000000A0
:100060000000000000000000000000000000000090
:100070000000000000000000000000000000000080
:100080000000000000000000000000000000000070
:100090000000000000000000000000000000000060
:1000A0000000000000000000000000000000000050
:1000B0000000000000000000000000000000000040
:1000C0000000000000000000000000000000000030
:1000D0000000000000000000000000000000000020
:1000E0000000000000000000000000000000000010
:1000F0000000000000000000000000000000000000
:1001000000000000000000000000000000000000EF
:1001100000000000000000000000000000000000DF
:1001200000000000000000000000000000000000CF
:1001300000000000000000000000000000000000BF
:1001400000000000000000000000000000000000AF
:10015000000000000000000000000000000000009F
:10016000000000000000000000000000000000008F
:10017000000000000000000000000000000000007F
:08018000000000000000000077
:100188004FF0FF0C1CEAD0521EBF1CEAD15392EA72
:100198000C0F93EA0C0F6FD01A4480EA010C40024E
:1001A80018BF5FEA41211ED04FF0006343EA5010A8
:1001B80043EA5111A0FB01310CF00040B1F5000FEA
:1001C8003EBF490041EAD3715B0040EA010062F199
:1001D8007F02FD2A1DD8B3F1004F40EBC25008BF83
:1001E80020F00100704790F0000F0CF0004C08BFA1
:1001F80049024CEA502040EA51207F3AC2BFD2F16E
:10020800FF0340EAC250704740F400004FF000037B
:10021800013A5DDC12F1190FDCBF00F000407047B5
:10022800C2F10002410021FA02F1C2F1200200FAF3
:1002380002FC5FEA310040F1000053EA4C0308BFBA
:1002480020EADC70704792F0000F00F0004C02BF0B
:10025800400010F4000F013AF9D040EA0C0093F086
:10026800000F01F0004C02BF490011F4000F013BE0
:10027800F9D041EA0C018FE70CEAD15392EA0C0F4E
:1002880018BF93EA0C0F0AD030F0004C18BF31F0B9
:10029800004CD8D180EA010000F00040704790F08F
:1002A800000F17BF90F0004F084691F0000F91F033
:1002B800004F14D092EA0C0F01D142020FD193EAF9
:1002C8000C0F03D14B0218BF084608D180EA010081
:1002D80000F0004040F0FE4040F40000704740F05D
:1002E800FE4040F44000704780F0004002E000BF4C
:1002F80081F0004142001FBF5FEA410392EA030F09
:100308007FEA226C7FEA236C6AD04FEA1262D2EB52
:100318001363C1BFD218414048404140B8BF5B4257
:10032800192B88BF704710F0004F40F4000020F0F0
:100338007F4018BF404211F0004F41F4000121F006
:100348007F4118BF494292EA030F3FD0A2F1010250
:1003580041FA03FC10EB0C00C3F1200301FA03F18E
:1003680000F0004302D5494260EB4000B0F5000FB1
:1003780013D3B0F1807F06D340084FEA310102F170
:100388000102FE2A51D2B1F1004F40EBC25008BF22
:1003980020F0010040EA03007047490040EB0000EC
:1003A800013A28BFB0F5000FEDD2B0FA80FCACF1ED
:1003B800080CB2EB0C0200FA0CF0AABF00EBC2501A
:1003C80052421843BCBFD0401843704792F0000F08
:1003D80081F4000106BF80F400000132013BB5E75B
:1003E8004FEA41037FEA226C18BF7FEA236C21D0D1
:1003F80092EA030F04D092F0000F08BF0846704736
:1004080090EA010F1CBF0020704712F07F4F04D103
:10041800400028BF40F00040704712F100723CBF16
:1004280000F50000704700F0004343F0FE4040F440
:10043800000070477FEA226216BF08467FEA2363FE
:100448000146420206BF5FEA412390EA010F40F4E9
:10045800800070474FF0000304E000BF10F0004335
:1004680048BF40425FEA000C08BF704743F096431C
:1004780001464FF000001CE050EA010208BF704737
:100488004FF000030AE000BF50EA010208BF7047BE
:1004980011F0004302D5404261EB41015FEA010CD3
:1004A80002BF84460146002043F0B64308BFA3F1CB
:1004B8008053A3F50003BCFA8CF2083AA3EBC253AD
:1004C80010DB01FA02FC634400FA02FCC2F12002CC
:1004D800BCF1004F20FA02F243EB020008BF20F003
:1004E8000100704702F1200201FA02FCC2F1200269
:1004F80050EA4C0021FA02F243EB020008BF20EA5E
:10050800DC7070474FF0FF3C06E000BF4FF0010C75
:1005180002E000BF4FF0010C4DF804CD4FEA400255
:100528004FEA41037FEA226C18BF7FEA236C11D09F
:1005380001B052EA530C18BF90EA010F58BFB2EB52
:10054800030088BFC81738BF6FEAE17018BF40F0D2
:10055800010070477FEA226C02D15FEA402C05D186
:100568007FEA236CE4D15FEA412CE1D05DF8040B0B
:10057800704700BF844608466146FFE70FB5FFF79E
:10058800C9FF002848BF10F1000F0FBD4DF808ED56
:10059800FFF7F4FF0CBF012000205DF808FB00BF47
:1005A8004DF808EDFFF7EAFF34BF012000205DF8A1
:1005B80008FB00BF4DF808EDFFF7E0FF94BF0120EE
:1005C80000205DF808FB00BF4DF808EDFFF7D2FFEB
:1005D80094BF012000205DF808FB00BF4DF808ED2E
:1005E800FFF7C8FF34BF012000205DF808FB00BFFB
:1005F80010B5054C237833B9044B13B10448AFF355
:1006080000800123237010BD3C0100200000000081
:100618007C17000808B5034B1BB103490348AFF327
:10062800008008BD00000000400100207C17000881
:1006380030B51C468DB000F06FFA234603F128054B
:1006480002AC18685968224603C20833AB42144604
:10065800F7D102A800F02AF800F065FA084B0193D8
:1006680001AA0421722000F0EFF801216A466520F2
:100678008DF8001000F0E8F800200DB030BD00BF84
:100688000102030408B500F0A7F900F0E3F900F04F
:100698001FFA00F0C7F8044A2821702000F0A8F8D3
:1006A80000F02CF9FCE700BF390600082DE9F04FEF
:1006B80003468BB0DFF8B4A0019005AE24330AF1ED
:1006C8000508B346002502930027019B4246A3F183
:1006D80004093C4612F9010B0392FFF7BFFE2449B7
:1006E800FFF74EFD59F8041FFFF74AFD0146204663
:1006F800FFF700FE029B039A4B450446EAD11AF91C
:10070800010BFFF7ABFE1B49FFF73AFD2146FFF748
:10071800F1FD39460446FFF761FF00B93C46013553
:10072800052D4BF8044B08F10A08CED1124FDFF81B
:100738004C900025002456F8048B17F9010BFFF79D
:100748008DFE4946FFF71CFD4146FFF719FD01469E
:100758002046FFF7CFFD0135052D0446EBD10849AA
:10076800FFF7C6FD0BB0BDE8F08F00BF9417000877
:10077800C78FDE3ED850E03CCB1700087280593F47
:10078800D27CBF3F10B50246014400208A4200D106
:1007980010BD12F8013B0824584043B2002BBABFE1
:1007A8005B0083F04D034300013CD8B2F5D1EDE77F
:1007B80030B50022044601238B4201D3002030BD0E
:1007C80014F8015F15B99D1A85541A460133DBB236
:1007D800F2E730B5047800250246057020468842C5
:1007E80000D204B930BD145C15540319D8B2F6E729
:1007F80038B50B4D2B680F2B04DD612000F0B2F9E2
:10080800012038BDFF2901D96220F7E70C2404FB39
:10081800035401332071C4E902122B600020F0E771
:100828000000002008B5064A00217620FFF7E0FF07
:10083800BDE80840034A00217720FFF7D9BF00BF71
:10084800AB080008C9080008F0B5C1B000230D4680
:100858008DF802106C468DF800308DF801000DF10E
:1008680002019D4218DCA91CC9B20DF10100FFF775
:1008780089FF63192F1D691DD8700026C9B220464B
:10088800E655FFF795FF14F8010B013600F06AF9F9
:10089800B742F8DA41B0F0BDD05C01F8010F01337E
:1008A800DFE707B503230DF10702012172208DF858
:1008B8000730FFF7C9FF002003B05DF804FB000014
:1008C80030B50D48017885B000220C24D3B28B4294
:1008D80002F1010206DB6A467220FFF7B5FF00202D
:1008E80005B030BD03F1100504FB03036D441B790B
:1008F80005F8103CEAE700BF000000202DE9F047AA
:10090800C2B00DF10707002402AE3C70354600F076
:1009180011F906F8010B48B9052038703A4601214B
:100928006520FFF791FF42B0BDE8F0870134042C41
:10093800EDD121462846FFF74CFF264E69783268EC
:10094800804600230C205FFA83F9914502DB08D129
:100958000120E2E700FB096C01339CF804C08C45D8
:10096800F1D1EB780533434507DA0420D5E700F0E9
:10097800E1F828550028CFD00134EB780433A3429E
:10098800F5DA00F0D7F828550028EED1C8F10101B2
:1009980051FA84F15FFA84FAC9B205EB0800FFF74F
:1009A80018FFAAF10201C9B20DF109002C44FFF7A2
:1009B800E9FE14F8013C834209D10C2303FB0966C4
:1009C800EA78F468A97868786B44A047A5E702201C
:1009D800A3E700BF0000002070B596B000240326EE
:1009E8004FF4A0230CA80125CDE90C6310941494AE
:1009F80000F0D0F80F23214602A8CDE90235CDE951
:100A08000444069400F00CFB104B11485A6942F458
:100A180000225A615B6903F400230193019B07A933
:100A28004FF4C043CDE90735CDE9094600F098FBFE
:100A38002A4607484FF4005100F050FC04482A4663
:100A48004FF4804100F04AFC16B070BD001002401F
:100A58000008004810B54FF4C06288B00223CDE901
:100A6800032301210323CDE90513164C072307931C
:100A7800636943F400336361636903F400330193EA
:100A880003A94FF09040019B00F06AFB0E4A0F4B00
:100A980013604FF461300023C2E90103C2E9033354
:100AA80093610C235361A36943F48043A361A36951
:100AB80003F4804302931046029B00F025FD08B022
:100AC80010BD00BF00100240C400002000380140E3
:100AD80030B5104B5A6942F4003287B05A615B69ED
:100AE80003F400330093009B4FF480540123CDE9B5
:100AF80001430025032301A94FF09040CDE903539A
:100B080000F02EFB2A4621464FF0904000F0E6FB0D
:100B180007B030BD0010024001224FF480514FF061
:100B2800904000F0DBBB00224FF480514FF0904022
:100B380000F0D4BB13B5094C094841F288330122AF
:100B48000DF1070100F060FD18B99DF8070002B02B
:100B580010BD236A43F008032362EDE70038014023
:100B6800C400002007B541F288338DF80700012240
:100B78000DF10701024800F0F1FC03B05DF804FB39
:100B8800C4000020024B1868421C1A60704700BF5E
:100B98003401002003682DE9F743D907044610D42F
:100BA80023689A077ED423681E0700F1E78023682C
:100BB8005D0700F12A81E269002A40F0AD8100203A
:100BC8001FE0AE494B6803F00C03042B07D04B68B9
:100BD80003F00C03082B17D14B68DB0314D54FF433
:100BE800003393FAA3F2096893FAA3F30122B3FA44
:100BF80083F302FA03F30B42D2D06368002BCFD100
:100C0800012003B0BDE8F0836268B2F5803F22D1CD
:100C18000B6843F480330B60CB6AA06823F00F03A2
:100C28000343CB623AB3FFF7ADFF4FF400360546F6
:100C3800012796FAA6F30A6896FAA6F3B3FA83F39D
:100C480007FA03F31342ABD1FFF79CFF401B64285C
:100C5800EFD90320D5E70B6832B923F480330B6052
:100C68000B6823F48023D6E7B2F5A02FF5D143F41F
:100C780080230B60CCE7FFF785FF4FF4003605466D
:100C8800012796FAA6F30A6896FAA6F3B3FA83F34D
:100C980007FA03F3134283D0FFF774FF401B64285D
:100CA800EFD9D6E775494B6813F00C0F07D04B689E
:100CB80003F00C03082B1FD14B68DF031CD402235D
:100CC80093FAA3F2086893FAA3F30122B3FA83F321
:100CD80002FA03F3034202D02369934290D10868D1
:100CE800F82292FAA2F26369B2FA82F2934020F0F3
:100CF800F80213430B6056E722690125F2B195FA11
:100D0800A5F3B3FA83F303F1845303F584139B002B
:100D180002271D60FFF736FF064697FAA7F30A6811
:100D280097FAA7F3B3FA83F305FA03F31342D6D17C
:100D3800FFF728FF801B0228EFD98AE795FAA5F369
:100D4800B3FA83F303F1845303F584139B0002275A
:100D58001A60FFF717FF064697FAA7F30A6897FA8B
:100D6800A7F3B3FA83F305FA03F313423FF41BAF77
:100D7800FFF708FF801B0228EED96AE7A0693F4DFC
:100D88003F4A012100B391FAA1F3B3FA83F3134464
:100D98009B0002261960FFF7F5FE074696FAA6F3B0
:100DA80096FAA6F396FAA6F36A6A96FAA6F3B3FA3F
:100DB80083F301FA03F313427FF4F9AEFFF7E2FE7F
:100DC800C01B0228EAD944E791FAA1F3B3FA83F3E6
:100DD80013449B0002261860FFF7D4FE074696FAD4
:100DE800A6F396FAA6F396FAA6F36A6A96FAA6F313
:100DF800B3FA83F301FA03F313423FF4D8AEFFF7D3
:100E0800C1FEC01B0228EAD923E71C49CB69D800D8
:100E180031D4CB6943F08053CB61CB6903F0805365
:100E28000193019B0125174E3368DA052CD5E36839
:100E3800012B39D10B6A43F001030B62FFF7A2FEC5
:100E4800022607464FF0010841F2883996FAA6F3C0
:100E580096FAA6F30A6A96FAA6F3B3FA83F308FA9F
:100E680003F3134252D0002D3FF4A5AECB6923F013
:100E78008053CB619FE60025D5E700BF00100240F4
:100E88002081901000700040336843F48073336011
:100E9800FFF778FE07463368DB05C8D4FFF772FE14
:100EA800C01B6428F7D9D4E613BB0B6A23F00103EF
:100EB8000B620B6A23F004030B62FFF763FE022642
:100EC80007464FF0010841F2883996FAA6F396FAD8
:100ED800A6F30A6A96FAA6F3B3FA83F308FA03F3B9
:100EE8001342C0D0FFF74EFEC01B4845EDD9B0E60F
:100EF800052B0B6A03D143F004030B629AE723F036
:100F080001030B620B6A23F0040396E7FFF73AFE2E
:100F1800C01B48459AD99CE63F494B6803F00C032F
:100F2800082B3FF46DAE022A4FF0807350D193FA2C
:100F3800A3F3B3FA83F303F1845303F584139B00FB
:100F480000221A60FFF71EFEDFF8D08006464FF039
:100F58000077012597FAA7F30A6897FAA7F3B3FA77
:100F680083F305FA03F313422CD1D4E908034A6842
:100F7800034322F4741213434B604FF0807393FAC7
:100F8800A3F3B3FA83F303F1845303F584139B00AB
:100F9800224F1D60FFF7F6FD4FF00075044601264D
:100FA80095FAA5F30A6895FAA5F3B3FA83F306FA56
:100FB80003F313427FF403AEFFF7E4FD001BB842CE
:100FC800EED946E6FFF7DEFD831B4345C2D940E66E
:100FD80093FAA3F3B3FA83F303F1845303F5841369
:100FE8009B0000221A60FFF7CDFD0C4F04464FF01E
:100FF8000075012695FAA5F30A6895FAA5F3B3FAE0
:1010080083F306FA03F313423FF4D9ADFFF7BAFDB1
:10101800001BB842EED91CE600100240400D030048
:101028004D4AF8B5136803F007038B42044611D301
:10103800226895071AD4D00720D4474A136803F0CA
:1010480007038B426CD82268510774D413077AD4EB
:1010580000200AE0136823F007030B4313601368AA
:1010680003F007038B42E3D00120F8BD3B48A56895
:10107800436823F0F0032B434360DCE76268374D95
:10108800012A25D14FF4003393FAA3F0286893FA84
:10109800A3F3B3FA83F302FA03F30342E4D06B68D1
:1010A80023F0030313436B60FFF76CFD6368012BA8
:1010B800064641F288371CD16B6803F00C03042BF9
:1010C800BBD0FFF75FFD801BB842F5D90320CCE702
:1010D800022A0CBF4FF00073022393FAA3F02E6884
:1010E80093FAA3F30120B3FA83F300FA03F333422C
:1010F800D4E7022B0FD16B6803F00C03082B9CD0AC
:10110800FFF740FD801BB842F5D9DFE7FFF73AFD4E
:10111800801BB842DAD86B6813F00C0FF6D18CE755
:10112800136823F007030B431360136803F00703E6
:101138008B4299D187E70949E0684B6823F4E0635B
:1011480003434B6082E7054A2169536823F46053DF
:1011580043EAC10353607BE70020024000100240CD
:101168002DE9F74FDFF868815A4C00234FF00F093B
:101178000A6832FA03F502D103B0BDE8F08F012501
:1011880005FA03FA1AEA020200F098804D6825F081
:10119800100EBEF1020F11D1DF0800EB870703F034
:1011A800070C3E6A4FEA8C0C09FA0CFB26EA0B0B7B
:1011B8000E6906FA0CF646EA0B063E62D0F800B055
:1011C8004FEA430C032606FA0CF72BEA070BFE43FB
:1011D80005F0030707FA0CF70EF1FF3E47EA0B0785
:1011E800BEF1010F076010D8876806EA070ECF68BE
:1011F80007FA0CF747EA0E078760476827EA0A0EDE
:101208002F099F4047EA0E074760C76837408E6836
:1012180006FA0CF63E43C660EE004FD5D8F81860C3
:1012280046F00106C8F81860D8F8186023F00307DC
:1012380007F1804706F0010607F58037019603F0AD
:10124800030C019EBE684FEA8C0C09FA0CFEB0F143
:10125800904F26EA0E0E33D01F4EB04232D006F51C
:101268008066B04230D006F58066B0422ED006F5D2
:101278008066B04214BF0526042606FA0CF646EA34
:101288000E06BE602668D74315F4803F0CBF3E406B
:1012980016432660666815F4003F0CBF3E401643AF
:1012A8006660A66815F4801F0CBF3E401643A66012
:1012B800E668AD0254BF3E401643E660013357E787
:1012C8000026DAE70126D8E70226D6E70326D4E780
:1012D8000010024000040140000400480AB1816186
:1012E800704781627047000002688368C16930B541
:1012F800056914682B43456924F416442B4324F0EC
:101308000C040B43234313605368C468056A23F431
:101318004053234353609468836924F430642B4317
:1013280023439360424B9A4211D103F558431B6BF8
:1013380003F00303022B5FD0032B65D0B1F5004FF8
:1013480041684FEA510345D003F5E10348E0394BC2
:101358009A4212D103F5E6331B6B03F44033B3F51D
:10136800003F49D0EAD9B3F5403F4DD0B1F5004F21
:101378004FF001005BD1002353E02F4B9A420BD171
:1013880003F5E4331B6B03F44023B3F5002F33D08C
:10139800D4D9B3F5402FE8E7284B9A420BD103F58F
:1013A800E2331B6B03F44013B3F5001F24D0C5D9F7
:1013B800B3F5401FD9E7224B9A42D7D103F5E03362
:1013C8001B6B03F44003B3F5000F15D0B6D9B3F582
:1013D800400FCAE703F561031FE04B0803F500431C
:1013E800B3FBF1F39BB2D360002020E04B0803F578
:1013F800740303F51053F3E7B1F5004F4168ECD1DE
:101408004B0803F5803308E0B1F5004F4168EDD192
:101418004B0803F1F47303F59043B3FBF1F3002099
:101428009BB223F00F01C3F342030B43D36030BDDB
:10143800003801400044004000480040004C004093
:10144800005000402DE9F041DDF8188004461646AA
:101458001F462568EB6931EA03030CBF012300230B
:10146800B34201D0002016E0B8F1FF3FF2D0B8F146
:10147800000F12D12B6823F4D0732B60AB6823F0D4
:101488000103AB60202384F8693084F86A300023B4
:1014980084F868300320BDE8F081FFF773FBC01BB8
:1014A8004045D6D9E6E773B504460021C166FFF783
:1014B80069FB266833681A07054616D433685B0744
:1014C8000AD56FF07E43009300222B464FF480012B
:1014D8002046FFF7B7FFA0B92023002084F8693021
:1014E80084F8680084F86A300CE06FF07E4300935B
:1014F8000A4603464FF400112046FFF7A3FF0028D1
:10150800DCD0032002B070BD38B5044620B390F893
:10151800693003F0FF020BB980F86820256824239E
:1015280084F869302B6823F001032B602046FFF70D
:10153800DBFE012810D06B6823F490436B60AB6826
:1015480023F02A03AB602B6843F001032B6020468D
:10155800BDE83840FFF7A7BF012038BDF7B51E46E4
:1015680090F86930202B0D46044611464AD1002DCB
:1015780046D0002A44D090F86830012B42D001238D
:1015880080F868300023C366212380F86930FFF7AC
:10159800F9FAA4F850100746A4F85210B4F85220EB
:1015A80092B262B900963B4640212046FFF74AFFB7
:1015B80098B9202384F8693084F868000EE0B4F8FC
:1015C8005220013A92B2A4F852203B4600960022DB
:1015D80080212046FFF736FF10B1032003B0F0BD8D
:1015E800A3682268B3F5805F07D123692BB935F862
:1015F800023BC3F308031385D0E715F8013BFAE76C
:101608000120EBE70220E9E72DE9F3411E4690F8B7
:101618006A30202B0D46044611465CD1002D58D067
:10162800002A56D090F86830012B54D0012380F856
:10163800683003684FF0FF321A620023C366222322
:1016480080F86A30FFF79EFAA368A4F85810B3F53B
:10165800805F8046A4F85A1015D123698BB940F2EF
:10166800FF13A4F85C30B4F85C70B4F85A0080B288
:1016780080B9202384F86A3084F8680002B0BDE895
:10168800F081FF23EDE7002BEDD12369002BF8D083
:101698007F23E6E7B4F85A20013A92B2A4F85A2018
:1016A80043460096002220212046FFF7CBFEA0B932
:1016B800A2682368B2F5805F06D1226922B99B8CA3
:1016C8003B4025F8023BD0E79B8C3B4005F8013BAB
:1016D800CBE70120D2E70220D0E70320CEE70000C5
:1016E800002103E00B4B5B58435004310A480B4B75
:1016F80042189A42F6D30A4A02E0002313600432E1
:10170800084B9A42F9D3AFF3008000F00FF8FEF7C8
:10171800B9FFFEE7D81700080000002000000020ED
:101728000000002058010020FEE7000070B50D4BB6
:101738000D4D5B1B9C100026A64209D100F01AF83B
:101748000A4D0B4B5B1B9C100026A64205D170BDB1
:1017580055F8043B98470136EEE755F8043B98479F
:101768000136F2E7D0170008D0170008D017000894
:10177800D4170008F8B500BFF8BC08BC9E467047EF
:0C178800F8B500BFF8BC08BC9E467047D6
:10179400FFFC05FF070202FDFCFEFFFDFEFFFAFB56
:1017A40001FD02FEFEFBFEFE06030203FE04FE0232
:1017B400FDFE0102FC0205FEFEFEFFFE00FC00FD34
:0C17C400FBFEFF07FE00020605070605FD
:0417D0001D060008EA
:0417D400F90500080B
:04000005080016E9F0
:00000001FF
