:020000040800F2
:1000000000A0002049130008911300089113000874
:1000100091130008911300089113000800000000DC
:100020000000000000000000000000009113000824
:1000300091130008000000009113000891130008BC
:1000400000000000000000000000000000000000B0
:1000500000000000000000000000000000000000A0
:100060000000000000000000000000000000000090
:100070000000000000000000000000000000000080
:100080000000000000000000000000000000000070
:100090000000000000000000000000000000000060
:1000A0000000000000000000000000000000000050
:1000B0000000000000000000000000000000000040
:1000C0000000000000000000000000000000000030
:1000D0000000000000000000000000000000000020
:1000E0000000000000000000000000000000000010
:1000F0000000000000000000000000000000000000
:1001000000000000000000000000000000000000EF
:1001100000000000000000000000000000000000DF
:1001200000000000000000000000000000000000CF
:1001300000000000000000000000000000000000BF
:1001400000000000000000000000000000000000AF
:10015000000000000000000000000000000000009F
:10016000000000000000000000000000000000008F
:10017000000000000000000000000000000000007F
:08018000000000000000000077
:1001880010B5054C237833B9044B13B10448AFF3C9
:1001980000800123237010BD3C01002000000000F6
:1001A800DC13000808B5034B1BB103490348AFF340
:1001B800008008BD0000000040010020DC1300089A
:1001C80013B51C4600F0D8FA4FF4487300BF013B42
:1001D800FCD1204600F024F84FF44874019000BF89
:1001E800013CFCD100F0CFFA01AA0421722000F0F2
:1001F8005BF9204602B010BD08B500F01DFA00F00A
:1002080059FA00F095FA00F03DF9044A0A217020E5
:1002180000F01EF900F0A2F9FCE700BFC9010008D0
:100228002DE9F04F694A8FB002F118030490029348
:1002380002F130030193049B0DF11C0B123302F100
:100248004800CDF800B0002505930126049B0390D3
:1002580009A99C1E8E46039B5D4F33F8029B34F818
:1002680002AF0393B846002338F802CBE24540F0CA
:100278008D805BB24FF0000837F802ABD14540F0F3
:100288008C804FFA88F80E2707FB03884F4B03EB47
:100298004808B8F8DC302EF8023B059BA342DAD1B7
:1002A80000242746DFF82CC1B1F80090B1F802808D
:1002B800E64600233EF802ABD14577D15BB24FF05A
:1002C800000E3CF8029BC84576D14FFA8EFE4FF0DF
:1002D800620C0CFB03EE404B023433F91E300A2C3F
:1002E8001F4401F10401DDD10299019C51F804CBAE
:1002F800029154F8041B52F8043B0194A1F1020E38
:10030800C1F102041F4406FA0EFE01F11E0326FA8B
:1003180004F44EEA040406FA03F3C7FB0C3401F1B3
:100328001F07C1F10101B7F1200C04FA01F123FA0A
:1003380007F343EA010358BF44FA0CFC009958BF7D
:1003480043EA0C0383F3030301F8013B0135062D4F
:10035800009100F114007FF479AF00221F49134681
:100368001BF9014B11F9010B0132062A04FB00337A
:10037800F6D11B495A1E00204FF48003C2FB0130FE
:10038800DB0D43EA40200FB0BDE8F08F01330E2BA0
:100398007FF46AAF4FF0FF336CE708F10108B8F15A
:1003A8000E0F7FF469AF4FF0FF386CE70133622B13
:1003B80080D14FF0FF3382E70EF1010EBEF1620FDC
:1003C8007FF47FAF4FF0FF3E81E700BFF4130008D2
:1003D800B414000858160008221700081C17000853
:1003E8004CFEAE5010B50246014400208A4200D1AE
:1003F80010BD12F8013B0824584043B2002BBABF85
:100408005B0083F04D034300013CD8B2F5D1EDE722
:1004180030B50022044601238B4201D3002030BDB1
:1004280014F8015F15B99D1A85541A460133DBB2D9
:10043800F2E730B504780025024605702046884268
:1004480000D204B930BD145C15540319D8B2F6E7CC
:1004580038B50B4D2B680F2B04DD612000F0B2F985
:10046800012038BDFF2901D96220F7E70C2404FBDD
:10047800035401332071C4E902122B600020F0E715
:100488000000002008B5064A00217620FFF7E0FFAB
:10049800BDE80840034A00217720FFF7D9BF00BF15
:1004A8000B05000829050008F0B5C1B000230D466A
:1004B8008DF802106C468DF800308DF801000DF1B2
:1004C80002019D4218DCA91CC9B20DF10100FFF719
:1004D80089FF63192F1D691DD8700026C9B22046EF
:1004E800E655FFF795FF14F8010B013600F06AF99D
:1004F800B742F8DA41B0F0BDD05C01F8010F013322
:10050800DFE707B503230DF10702012172208DF8FB
:100518000730FFF7C9FF002003B05DF804FB0000B7
:1005280030B50D48017885B000220C24D3B28B4237
:1005380002F1010206DB6A467220FFF7B5FF0020D0
:1005480005B030BD03F1100504FB03036D441B79AE
:1005580005F8103CEAE700BF000000202DE9F0474D
:10056800C2B00DF10707002402AE3C70354600F01A
:1005780011F906F8010B48B9052038703A460121EF
:100588006520FFF791FF42B0BDE8F0870134042CE5
:10059800EDD121462846FFF74CFF264E6978326890
:1005A800804600230C205FFA83F9914502DB08D1CD
:1005B8000120E2E700FB096C01339CF804C08C457C
:1005C800F1D1EB780533434507DA0420D5E700F08D
:1005D800E1F828550028CFD00134EB780433A34242
:1005E800F5DA00F0D7F828550028EED1C8F1010156
:1005F80051FA84F15FFA84FAC9B205EB0800FFF7F3
:1006080018FFAAF10201C9B20DF109002C44FFF745
:10061800E9FE14F8013C834209D10C2303FB096667
:10062800EA78F468A97868786B44A047A5E70220BF
:10063800A3E700BF0000002070B596B00024032691
:100648004FF4A0230CA80125CDE90C631094149451
:1006580000F0D0F80F23214602A8CDE90235CDE9F4
:100668000444069400F00CFB104B11485A6942F4FC
:1006780000225A615B6903F400230193019B07A9D7
:100688004FF4C043CDE90735CDE9094600F098FBA2
:100698002A4607484FF4005100F050FC04482A4607
:1006A8004FF4804100F04AFC16B070BD00100240C3
:1006B8000008004810B54FF4C06288B00223CDE9A5
:1006C800032301210323CDE90513164C07230793C0
:1006D800636943F400336361636903F4003301938E
:1006E80003A94FF09040019B00F06AFB0E4A0F4BA4
:1006F80013604FF461300023C2E90103C2E90333F8
:1007080093610C235361A36943F48043A361A369F4
:1007180003F4804302931046029B00F025FD08B0C5
:1007280010BD00BF00100240C40000200038014086
:1007380030B5104B5A6942F4003287B05A615B6990
:1007480003F400330093009B4FF480540123CDE958
:1007580001430025032301A94FF09040CDE903533D
:1007680000F02EFB2A4621464FF0904000F0E6FBB1
:1007780007B030BD0010024001224FF480514FF005
:10078800904000F0DBBB00224FF480514FF09040C6
:1007980000F0D4BB13B5094C094841F28833012253
:1007A8000DF1070100F060FD18B99DF8070002B0CF
:1007B80010BD236A43F008032362EDE700380140C7
:1007C800C400002007B541F288338DF807000122E4
:1007D8000DF10701024800F0F1FC03B05DF804FBDD
:1007E800C4000020024B1868421C1A60704700BF02
:1007F8003401002003682DE9F743D907044610D4D3
:1008080023689A077ED423681E0700F1E7802368CF
:100818005D0700F12A81E269002A40F0AD810020DD
:100828001FE0AE494B6803F00C03042B07D04B685C
:1008380003F00C03082B17D14B68DB0314D54FF4D6
:10084800003393FAA3F2096893FAA3F30122B3FAE7
:1008580083F302FA03F30B42D2D06368002BCFD1A3
:10086800012003B0BDE8F0836268B2F5803F22D171
:100878000B6843F480330B60CB6AA06823F00F0346
:100888000343CB623AB3FFF7ADFF4FF4003605469A
:10089800012796FAA6F30A6896FAA6F3B3FA83F341
:1008A80007FA03F31342ABD1FFF79CFF401B642800
:1008B800EFD90320D5E70B6832B923F480330B60F6
:1008C8000B6823F48023D6E7B2F5A02FF5D143F4C3
:1008D80080230B60CCE7FFF785FF4FF40036054611
:1008E800012796FAA6F30A6896FAA6F3B3FA83F3F1
:1008F80007FA03F3134283D0FFF774FF401B642801
:10090800EFD9D6E775494B6813F00C0F07D04B6841
:1009180003F00C03082B1FD14B68DF031CD4022300
:1009280093FAA3F2086893FAA3F30122B3FA83F3C4
:1009380002FA03F3034202D02369934290D1086874
:10094800F82292FAA2F26369B2FA82F2934020F096
:10095800F80213430B6056E722690125F2B195FAB4
:10096800A5F3B3FA83F303F1845303F584139B00CF
:1009780002271D60FFF736FF064697FAA7F30A68B5
:1009880097FAA7F3B3FA83F305FA03F31342D6D120
:10099800FFF728FF801B0228EFD98AE795FAA5F30D
:1009A800B3FA83F303F1845303F584139B000227FE
:1009B8001A60FFF717FF064697FAA7F30A6897FA2F
:1009C800A7F3B3FA83F305FA03F313423FF41BAF1B
:1009D800FFF708FF801B0228EED96AE7A0693F4DA0
:1009E8003F4A012100B391FAA1F3B3FA83F3134408
:1009F8009B0002261960FFF7F5FE074696FAA6F354
:100A080096FAA6F396FAA6F36A6A96FAA6F3B3FAE2
:100A180083F301FA03F313427FF4F9AEFFF7E2FE22
:100A2800C01B0228EAD944E791FAA1F3B3FA83F389
:100A380013449B0002261860FFF7D4FE074696FA77
:100A4800A6F396FAA6F396FAA6F36A6A96FAA6F3B6
:100A5800B3FA83F301FA03F313423FF4D8AEFFF776
:100A6800C1FEC01B0228EAD923E71C49CB69D8007C
:100A780031D4CB6943F08053CB61CB6903F0805309
:100A88000193019B0125174E3368DA052CD5E368DD
:100A9800012B39D10B6A43F001030B62FFF7A2FE69
:100AA800022607464FF0010841F2883996FAA6F364
:100AB80096FAA6F30A6A96FAA6F3B3FA83F308FA43
:100AC80003F3134252D0002D3FF4A5AECB6923F0B7
:100AD8008053CB619FE60025D5E700BF0010024098
:100AE8002081901000700040336843F480733360B5
:100AF800FFF778FE07463368DB05C8D4FFF772FEB8
:100B0800C01B6428F7D9D4E613BB0B6A23F0010392
:100B18000B620B6A23F004030B62FFF763FE0226E5
:100B280007464FF0010841F2883996FAA6F396FA7B
:100B3800A6F30A6A96FAA6F3B3FA83F308FA03F35C
:100B48001342C0D0FFF74EFEC01B4845EDD9B0E6B2
:100B5800052B0B6A03D143F004030B629AE723F0D9
:100B680001030B620B6A23F0040396E7FFF73AFED2
:100B7800C01B48459AD99CE63F494B6803F00C03D3
:100B8800082B3FF46DAE022A4FF0807350D193FAD0
:100B9800A3F3B3FA83F303F1845303F584139B009F
:100BA80000221A60FFF71EFEDFF8D08006464FF0DD
:100BB8000077012597FAA7F30A6897FAA7F3B3FA1B
:100BC80083F305FA03F313422CD1D4E908034A68E6
:100BD800034322F4741213434B604FF0807393FA6B
:100BE800A3F3B3FA83F303F1845303F584139B004F
:100BF800224F1D60FFF7F6FD4FF0007504460126F1
:100C080095FAA5F30A6895FAA5F3B3FA83F306FAF9
:100C180003F313427FF403AEFFF7E4FD001BB84271
:100C2800EED946E6FFF7DEFD831B4345C2D940E611
:100C380093FAA3F3B3FA83F303F1845303F584130C
:100C48009B0000221A60FFF7CDFD0C4F04464FF0C1
:100C58000075012695FAA5F30A6895FAA5F3B3FA83
:100C680083F306FA03F313423FF4D9ADFFF7BAFD55
:100C7800001BB842EED91CE600100240400D0300EC
:100C88004D4AF8B5136803F007038B42044611D3A5
:100C9800226895071AD4D00720D4474A136803F06E
:100CA80007038B426CD82268510774D413077AD48F
:100CB80000200AE0136823F007030B43136013684E
:100CC80003F007038B42E3D00120F8BD3B48A56839
:100CD800436823F0F0032B434360DCE76268374D39
:100CE800012A25D14FF4003393FAA3F0286893FA28
:100CF800A3F3B3FA83F302FA03F30342E4D06B6875
:100D080023F0030313436B60FFF76CFD6368012B4B
:100D1800064641F288371CD16B6803F00C03042B9C
:100D2800BBD0FFF75FFD801BB842F5D90320CCE7A5
:100D3800022A0CBF4FF00073022393FAA3F02E6827
:100D480093FAA3F30120B3FA83F300FA03F33342CF
:100D5800D4E7022B0FD16B6803F00C03082B9CD04F
:100D6800FFF740FD801BB842F5D9DFE7FFF73AFDF2
:100D7800801BB842DAD86B6813F00C0FF6D18CE7F9
:100D8800136823F007030B431360136803F007038A
:100D98008B4299D187E70949E0684B6823F4E063FF
:100DA80003434B6082E7054A2169536823F4605383
:100DB80043EAC10353607BE7002002400010024071
:100DC8002DE9F74FDFF868815A4C00234FF00F09DF
:100DD8000A6832FA03F502D103B0BDE8F08F0125A5
:100DE80005FA03FA1AEA020200F098804D6825F025
:100DF800100EBEF1020F11D1DF0800EB870703F0D8
:100E0800070C3E6A4FEA8C0C09FA0CFB26EA0B0B1E
:100E18000E6906FA0CF646EA0B063E62D0F800B0F8
:100E28004FEA430C032606FA0CF72BEA070BFE439E
:100E380005F0030707FA0CF70EF1FF3E47EA0B0728
:100E4800BEF1010F076010D8876806EA070ECF6861
:100E580007FA0CF747EA0E078760476827EA0A0E81
:100E68002F099F4047EA0E074760C76837408E68DA
:100E780006FA0CF63E43C660EE004FD5D8F8186067
:100E880046F00106C8F81860D8F8186023F0030780
:100E980007F1804706F0010607F58037019603F051
:100EA800030C019EBE684FEA8C0C09FA0CFEB0F1E7
:100EB800904F26EA0E0E33D01F4EB04232D006F5C0
:100EC8008066B04230D006F58066B0422ED006F576
:100ED8008066B04214BF0526042606FA0CF646EAD8
:100EE8000E06BE602668D74315F4803F0CBF3E400F
:100EF80016432660666815F4003F0CBF3E40164353
:100F08006660A66815F4801F0CBF3E401643A660B5
:100F1800E668AD0254BF3E401643E660013357E72A
:100F28000026DAE70126D8E70226D6E70326D4E723
:100F38000010024000040140000400480AB1816129
:100F4800704781627047000002688368C16930B5E4
:100F5800056914682B43456924F416442B4324F08F
:100F68000C040B43234313605368C468056A23F4D5
:100F78004053234353609468836924F430642B43BB
:100F880023439360424B9A4211D103F558431B6B9C
:100F980003F00303022B5FD0032B65D0B1F5004F9C
:100FA80041684FEA510345D003F5E10348E0394B66
:100FB8009A4212D103F5E6331B6B03F44033B3F5C1
:100FC800003F49D0EAD9B3F5403F4DD0B1F5004FC5
:100FD8004FF001005BD1002353E02F4B9A420BD115
:100FE80003F5E4331B6B03F44023B3F5002F33D030
:100FF800D4D9B3F5402FE8E7284B9A420BD103F533
:10100800E2331B6B03F44013B3F5001F24D0C5D99A
:10101800B3F5401FD9E7224B9A42D7D103F5E03305
:101028001B6B03F44003B3F5000F15D0B6D9B3F525
:10103800400FCAE703F561031FE04B0803F50043BF
:10104800B3FBF1F39BB2D360002020E04B0803F51B
:10105800740303F51053F3E7B1F5004F4168ECD181
:101068004B0803F5803308E0B1F5004F4168EDD136
:101078004B0803F1F47303F59043B3FBF1F300203D
:101088009BB223F00F01C3F342030B43D36030BD7F
:10109800003801400044004000480040004C004037
:1010A800005000402DE9F041DDF81880044616464E
:1010B8001F462568EB6931EA03030CBF01230023AF
:1010C800B34201D0002016E0B8F1FF3FF2D0B8F1EA
:1010D800000F12D12B6823F4D0732B60AB6823F078
:1010E8000103AB60202384F8693084F86A30002358
:1010F80084F868300320BDE8F081FFF773FBC01B5C
:101108004045D6D9E6E773B504460021C166FFF726
:1011180069FB266833681A07054616D433685B07E7
:101128000AD56FF07E43009300222B464FF48001CE
:101138002046FFF7B7FFA0B92023002084F86930C4
:1011480084F8680084F86A300CE06FF07E430093FE
:101158000A4603464FF400112046FFF7A3FF002874
:10116800DCD0032002B070BD38B5044620B390F837
:10117800693003F0FF020BB980F868202568242342
:1011880084F869302B6823F001032B602046FFF7B1
:10119800DBFE012810D06B6823F490436B60AB68CA
:1011A80023F02A03AB602B6843F001032B60204631
:1011B800BDE83840FFF7A7BF012038BDF7B51E4688
:1011C80090F86930202B0D46044611464AD1002D6F
:1011D80046D0002A44D090F86830012B42D0012331
:1011E80080F868300023C366212380F86930FFF750
:1011F800F9FAA4F850100746A4F85210B4F852208F
:1012080092B262B900963B4640212046FFF74AFF5A
:1012180098B9202384F8693084F868000EE0B4F89F
:101228005220013A92B2A4F852203B46009600227E
:1012380080212046FFF736FF10B1032003B0F0BD30
:10124800A3682268B3F5805F07D123692BB935F805
:10125800023BC3F308031385D0E715F8013BFAE70F
:101268000120EBE70220E9E72DE9F3411E4690F85B
:101278006A30202B0D46044611465CD1002D58D00B
:10128800002A56D090F86830012B54D0012380F8FA
:10129800683003684FF0FF321A620023C3662223C6
:1012A80080F86A30FFF79EFAA368A4F85810B3F5DF
:1012B800805F8046A4F85A1015D123698BB940F293
:1012C800FF13A4F85C30B4F85C70B4F85A0080B22C
:1012D80080B9202384F86A3084F8680002B0BDE839
:1012E800F081FF23EDE7002BEDD12369002BF8D027
:1012F8007F23E6E7B4F85A20013A92B2A4F85A20BC
:1013080043460096002220212046FFF7CBFEA0B9D5
:10131800A2682368B2F5805F06D1226922B99B8C46
:101328003B4025F8023BD0E79B8C3B4005F8013B4E
:10133800CBE70120D2E70220D0E70320CEE7000068
:10134800002103E00B4B5B58435004310A480B4B18
:1013580042189A42F6D30A4A02E000231360043284
:10136800084B9A42F9D3AFF3008000F00FF8FEF76C
:1013780043FFFEE734620008000000200000002060
:101388000000002058010020FEE7000070B50D4B5A
:101398000D4D5B1B9C100026A64209D100F01AF8DF
:1013A8000A4D0B4B5B1B9C100026A64205D170BD55
:1013B80055F8043B98470136EEE755F8043B984743
:1013C8000136F2E72C6200082C6200082C62000843
:1013D80030620008F8B500BFF8BC08BC9E467047EC
:0C13E800F8B500BFF8BC08BC9E4670477A
:1013F400FBFFFFFF060000000800000012000000D1
:10140400FFFFFFFFFDFFFFFF18D3184B0EF0F86A34
:10141400960C0C6F0104B54348C5BC494BADD1557E
:1014240004000000050000000500000005000000A5
:10143400040000000400000006608B4881680C4032
:10144400066087080960096081688B480520816807
:10145400034006608708052009608708096087083B
:1014640006600C4087080C400A208B488E688B4825
:101474000A2087080A200A2006600A208808816852
:101484008448816803400340870884488B48822845
:101494008E6882288B488708880887088808870808
:1014A40005208B4805208B48066006608E68034043
:1014B40081688228034084480520066087088808DC
:1014C40009600A208B480C408D288E6862005B00FE
:1014D40054004D0046003F0038002B0024001D003E
:1014E40016000F00080001005B0055004F00490082
:1014F40043003D0037002C00260020001A00140091
:101504000E00080054004F004A00450040003B0014
:1015140036002D00280023001E00190014000F00BF
:101524004D004900450041003D00390035002E00C2
:101534002A00260022001E001A001600460043005E
:1015440040003D003A00370034002F002C002900F1
:101554002600230020001D003F003D003B00390011
:1015640037003500330030002E002C002A002800FC
:1015740026002400380037003600350034003300DC
:101584003200310030002F002E002D002C002B00E3
:101594002B002C002D002E002F00300031003200D3
:1015A40033003400350036003700380024002600AC
:1015B40028002A002C002E003000330035003700AC
:1015C40039003B003D003F001D00200023002600A1
:1015D40029002C002F00340037003A003D00400061
:1015E4004300460016001A001E00220026002A00AE
:1015F4002E00350039003D004100450049004D00F2
:101604000F00140019001E00230028002D003600CE
:101614003B00400045004A004F00540008000E0003
:1016240014001A00200026002C0037003D0043005F
:1016340049004F0055005B00010008000F00160030
:101644001D0024002B0038003F0046004D005400CC
:101654005B006200010002000300040005000600B4
:101664000700080009000A000B000C000D000E0022
:101674000F001000110012001300140015001600D2
:101684001700180019001A001B001C001D001E0082
:101694001F00200021002200230024002500260032
:1016A4002700280029002A002B002C002D002E00E2
:1016B4002F00300031003200330034003500360092
:1016C4003700380039003A003B003C003D003E0042
:1016D4003F004000410042004300440045004600F2
:1016E4004700480049004A004B004C004D004E00A2
:1016F4004F00500051005200530054005500560052
:101704005700580059005A005B005C005D005E0001
:101714005F0060006100620007FCFDFD07069EFF9C
:101724009FFFA0FFA1FFA2FFA3FFA4FFA5FFA6FFA9
:10173400A7FFA8FFA9FFAAFFABFFACFFADFFAEFF59
:10174400AFFFB0FFB1FFB2FFB3FFB4FFB5FFB6FF09
:10175400B7FFB8FFB9FFBAFFBBFFBCFFBDFFBEFFB9
:10176400BFFFC0FFC1FFC2FFC3FFC4FFC5FFC6FF69
:10177400C7FFC8FFC9FFCAFFCBFFCCFFCDFFCEFF19
:10178400D0FFD1FFD2FFD3FFD4FFD5FFD6FFD7FFC1
:10179400D8FFD9FFDAFFDBFFDCFFDDFFDEFFDFFF71
:1017A400E0FFE1FFE2FFE3FFE4FFE5FFE6FFE7FF21
:1017B400E8FFE9FFEAFFEBFFECFFEDFFEEFFEFFFD1
:1017C400F0FFF1FFF2FFF3FFF4FFF5FFF6FFF7FF81
:1017D400F8FFF9FFFAFFFBFFFCFFFDFFFEFFFFFF31
:1017E40000009FFFA0FFA1FFA2FFA3FFA4FFA5FF8E
:1017F400A6FFA7FFA8FFA9FFAAFFABFFACFFADFFA1
:10180400AEFFAFFFB0FFB1FFB2FFB3FFB4FFB5FF50
:10181400B6FFB7FFB8FFB9FFBAFFBBFFBCFFBDFF00
:10182400BEFFBFFFC0FFC1FFC2FFC3FFC4FFC5FFB0
:10183400C6FFC7FFC8FFC9FFCAFFCBFFCCFFCDFF60
:10184400CEFFCFFFD1FFD2FFD3FFD4FFD5FFD6FF0A
:10185400D7FFD8FFD9FFDAFFDBFFDCFFDDFFDEFFB8
:10186400DFFFE0FFE1FFE2FFE3FFE4FFE5FFE6FF68
:10187400E7FFE8FFE9FFEAFFEBFFECFFEDFFEEFF18
:10188400EFFFF0FFF1FFF2FFF3FFF4FFF5FFF6FFC8
:10189400F7FFF8FFF9FFFAFFFBFFFCFFFDFFFEFF78
:1018A400FFFF00000100A0FFA1FFA2FFA3FFA4FF10
:1018B400A5FFA6FFA7FFA8FFA9FFAAFFABFFACFFE8
:1018C400ADFFAEFFAFFFB0FFB1FFB2FFB3FFB4FF98
:1018D400B5FFB6FFB7FFB8FFB9FFBAFFBBFFBCFF48
:1018E400BDFFBEFFBFFFC0FFC1FFC2FFC3FFC4FFF8
:1018F400C5FFC6FFC7FFC8FFC9FFCAFFCBFFCCFFA8
:10190400CDFFCEFFCFFFD0FFD2FFD3FFD4FFD5FF53
:10191400D6FFD7FFD8FFD9FFDAFFDBFFDCFFDDFFFF
:10192400DEFFDFFFE0FFE1FFE2FFE3FFE4FFE5FFAF
:10193400E6FFE7FFE8FFE9FFEAFFEBFFECFFEDFF5F
:10194400EEFFEFFFF0FFF1FFF2FFF3FFF4FFF5FF0F
:10195400F6FFF7FFF8FFF9FFFAFFFBFFFCFFFDFFBF
:10196400FEFFFFFF000001000200A1FFA2FFA3FF92
:10197400A4FFA5FFA6FFA7FFA8FFA9FFAAFFABFF2F
:10198400ACFFADFFAEFFAFFFB0FFB1FFB2FFB3FFDF
:10199400B4FFB5FFB6FFB7FFB8FFB9FFBAFFBBFF8F
:1019A400BCFFBDFFBEFFBFFFC0FFC1FFC2FFC3FF3F
:1019B400C4FFC5FFC6FFC7FFC8FFC9FFCAFFCBFFEF
:1019C400CCFFCDFFCEFFCFFFD0FFD1FFD3FFD4FF9D
:1019D400D5FFD6FFD7FFD8FFD9FFDAFFDBFFDCFF47
:1019E400DDFFDEFFDFFFE0FFE1FFE2FFE3FFE4FFF7
:1019F400E5FFE6FFE7FFE8FFE9FFEAFFEBFFECFFA7
:101A0400EDFFEEFFEFFFF0FFF1FFF2FFF3FFF4FF56
:101A1400F5FFF6FFF7FFF8FFF9FFFAFFFBFFFCFF06
:101A2400FDFFFEFFFFFF0000010002000300A2FF14
:101A3400A3FFA4FFA5FFA6FFA7FFA8FFA9FFAAFF76
:101A4400ABFFACFFADFFAEFFAFFFB0FFB1FFB2FF26
:101A5400B3FFB4FFB5FFB6FFB7FFB8FFB9FFBAFFD6
:101A6400BBFFBCFFBDFFBEFFBFFFC0FFC1FFC2FF86
:101A7400C3FFC4FFC5FFC6FFC7FFC8FFC9FFCAFF36
:101A8400CBFFCCFFCDFFCEFFCFFFD0FFD1FFD2FFE6
:101A9400D4FFD5FFD6FFD7FFD8FFD9FFDAFFDBFF8E
:101AA400DCFFDDFFDEFFDFFFE0FFE1FFE2FFE3FF3E
:101AB400E4FFE5FFE6FFE7FFE8FFE9FFEAFFEBFFEE
:101AC400ECFFEDFFEEFFEFFFF0FFF1FFF2FFF3FF9E
:101AD400F4FFF5FFF6FFF7FFF8FFF9FFFAFFFBFF4E
:101AE400FCFFFDFFFEFFFFFF0000010002000300FA
:101AF4000400A3FFA4FFA5FFA6FFA7FFA8FFA9FF5B
:101B0400AAFFABFFACFFADFFAEFFAFFFB0FFB1FF6D
:101B1400B2FFB3FFB4FFB5FFB6FFB7FFB8FFB9FF1D
:101B2400BAFFBBFFBCFFBDFFBEFFBFFFC0FFC1FFCD
:101B3400C2FFC3FFC4FFC5FFC6FFC7FFC8FFC9FF7D
:101B4400CAFFCBFFCCFFCDFFCEFFCFFFD0FFD1FF2D
:101B5400D2FFD3FFD5FFD6FFD7FFD8FFD9FFDAFFD7
:101B6400DBFFDCFFDDFFDEFFDFFFE0FFE1FFE2FF85
:101B7400E3FFE4FFE5FFE6FFE7FFE8FFE9FFEAFF35
:101B8400EBFFECFFEDFFEEFFEFFFF0FFF1FFF2FFE5
:101B9400F3FFF4FFF5FFF6FFF7FFF8FFF9FFFAFF95
:101BA400FBFFFCFFFDFFFEFFFFFF00000100020042
:101BB400030004000500A4FFA5FFA6FFA7FFA8FFDC
:101BC400A9FFAAFFABFFACFFADFFAEFFAFFFB0FFB5
:101BD400B1FFB2FFB3FFB4FFB5FFB6FFB7FFB8FF65
:101BE400B9FFBAFFBBFFBCFFBDFFBEFFBFFFC0FF15
:101BF400C1FFC2FFC3FFC4FFC5FFC6FFC7FFC8FFC5
:101C0400C9FFCAFFCBFFCCFFCDFFCEFFCFFFD0FF74
:101C1400D1FFD2FFD3FFD4FFD6FFD7FFD8FFD9FF20
:101C2400DAFFDBFFDCFFDDFFDEFFDFFFE0FFE1FFCC
:101C3400E2FFE3FFE4FFE5FFE6FFE7FFE8FFE9FF7C
:101C4400EAFFEBFFECFFEDFFEEFFEFFFF0FFF1FF2C
:101C5400F2FFF3FFF4FFF5FFF6FFF7FFF8FFF9FFDC
:101C6400FAFFFBFFFCFFFDFFFEFFFFFF000001008A
:101C740002000300040005000600A5FFA6FFA7FF5D
:101C8400A8FFA9FFAAFFABFFACFFADFFAEFFAFFFFC
:101C9400B0FFB1FFB2FFB3FFB4FFB5FFB6FFB7FFAC
:101CA400B8FFB9FFBAFFBBFFBCFFBDFFBEFFBFFF5C
:101CB400C0FFC1FFC2FFC3FFC4FFC5FFC6FFC7FF0C
:101CC400C8FFC9FFCAFFCBFFCCFFCDFFCEFFCFFFBC
:101CD400D0FFD1FFD2FFD3FFD4FFD5FFD7FFD8FF6A
:101CE400D9FFDAFFDBFFDCFFDDFFDEFFDFFFE0FF14
:101CF400E1FFE2FFE3FFE4FFE5FFE6FFE7FFE8FFC4
:101D0400E9FFEAFFEBFFECFFEDFFEEFFEFFFF0FF73
:101D1400F1FFF2FFF3FFF4FFF5FFF6FFF7FFF8FF23
:101D2400F9FFFAFFFBFFFCFFFDFFFEFFFFFF0000D2
:101D34000100020003000400050006000700A6FFDE
:101D4400A7FFA8FFA9FFAAFFABFFACFFADFFAEFF43
:101D5400AFFFB0FFB1FFB2FFB3FFB4FFB5FFB6FFF3
:101D6400B7FFB8FFB9FFBAFFBBFFBCFFBDFFBEFFA3
:101D7400BFFFC0FFC1FFC2FFC3FFC4FFC5FFC6FF53
:101D8400C7FFC8FFC9FFCAFFCBFFCCFFCDFFCEFF03
:101D9400CFFFD0FFD1FFD2FFD3FFD4FFD5FFD6FFB3
:101DA400D8FFD9FFDAFFDBFFDCFFDDFFDEFFDFFF5B
:101DB400E0FFE1FFE2FFE3FFE4FFE5FFE6FFE7FF0B
:101DC400E8FFE9FFEAFFEBFFECFFEDFFEEFFEFFFBB
:101DD400F0FFF1FFF2FFF3FFF4FFF5FFF6FFF7FF6B
:101DE400F8FFF9FFFAFFFBFFFCFFFDFFFEFFFFFF1B
:101DF40000000100020003000400050006000700C3
:101E04000800A7FFA8FFA9FFAAFFABFFACFFADFF27
:101E1400AEFFAFFFB0FFB1FFB2FFB3FFB4FFB5FF3A
:101E2400B6FFB7FFB8FFB9FFBAFFBBFFBCFFBDFFEA
:101E3400BEFFBFFFC0FFC1FFC2FFC3FFC4FFC5FF9A
:101E4400C6FFC7FFC8FFC9FFCAFFCBFFCCFFCDFF4A
:101E5400CEFFCFFFD0FFD1FFD2FFD3FFD4FFD5FFFA
:101E6400D6FFD7FFD9FFDAFFDBFFDCFFDDFFDEFFA4
:101E7400DFFFE0FFE1FFE2FFE3FFE4FFE5FFE6FF52
:101E8400E7FFE8FFE9FFEAFFEBFFECFFEDFFEEFF02
:101E9400EFFFF0FFF1FFF2FFF3FFF4FFF5FFF6FFB2
:101EA400F7FFF8FFF9FFFAFFFBFFFCFFFDFFFEFF62
:101EB400FFFF00000100020003000400050006000B
:101EC400070008000900A8FFA9FFAAFFABFFACFFA9
:101ED400ADFFAEFFAFFFB0FFB1FFB2FFB3FFB4FF82
:101EE400B5FFB6FFB7FFB8FFB9FFBAFFBBFFBCFF32
:101EF400BDFFBEFFBFFFC0FFC1FFC2FFC3FFC4FFE2
:101F0400C5FFC6FFC7FFC8FFC9FFCAFFCBFFCCFF91
:101F1400CDFFCEFFCFFFD0FFD1FFD2FFD3FFD4FF41
:101F2400D5FFD6FFD7FFD8FFDAFFDBFFDCFFDDFFED
:101F3400DEFFDFFFE0FFE1FFE2FFE3FFE4FFE5FF99
:101F4400E6FFE7FFE8FFE9FFEAFFEBFFECFFEDFF49
:101F5400EEFFEFFFF0FFF1FFF2FFF3FFF4FFF5FFF9
:101F6400F6FFF7FFF8FFF9FFFAFFFBFFFCFFFDFFA9
:101F7400FEFFFFFF00000100020003000400050053
:101F840006000700080009000A00A9FFAAFFABFF2A
:101F9400ACFFADFFAEFFAFFFB0FFB1FFB2FFB3FFC9
:101FA400B4FFB5FFB6FFB7FFB8FFB9FFBAFFBBFF79
:101FB400BCFFBDFFBEFFBFFFC0FFC1FFC2FFC3FF29
:101FC400C4FFC5FFC6FFC7FFC8FFC9FFCAFFCBFFD9
:101FD400CCFFCDFFCEFFCFFFD0FFD1FFD2FFD3FF89
:101FE400D4FFD5FFD6FFD7FFD8FFD9FFDBFFDCFF37
:101FF400DDFFDEFFDFFFE0FFE1FFE2FFE3FFE4FFE1
:10200400E5FFE6FFE7FFE8FFE9FFEAFFEBFFECFF90
:10201400EDFFEEFFEFFFF0FFF1FFF2FFF3FFF4FF40
:10202400F5FFF6FFF7FFF8FFF9FFFAFFFBFFFCFFF0
:10203400FDFFFEFFFFFF000001000200030004009B
:10204400050006000700080009000A000B00AAFFAB
:10205400ABFFACFFADFFAEFFAFFFB0FFB1FFB2FF10
:10206400B3FFB4FFB5FFB6FFB7FFB8FFB9FFBAFFC0
:10207400BBFFBCFFBDFFBEFFBFFFC0FFC1FFC2FF70
:10208400C3FFC4FFC5FFC6FFC7FFC8FFC9FFCAFF20
:10209400CBFFCCFFCDFFCEFFCFFFD0FFD1FFD2FFD0
:1020A400D3FFD4FFD5FFD6FFD7FFD8FFD9FFDAFF80
:1020B400DCFFDDFFDEFFDFFFE0FFE1FFE2FFE3FF28
:1020C400E4FFE5FFE6FFE7FFE8FFE9FFEAFFEBFFD8
:1020D400ECFFEDFFEEFFEFFFF0FFF1FFF2FFF3FF88
:1020E400F4FFF5FFF6FFF7FFF8FFF9FFFAFFFBFF38
:1020F400FCFFFDFFFEFFFFFF0000010002000300E4
:102104000400050006000700080009000A000B008F
:102114000C00ABFFACFFADFFAEFFAFFFB0FFB1FFF4
:10212400B2FFB3FFB4FFB5FFB6FFB7FFB8FFB9FF07
:10213400BAFFBBFFBCFFBDFFBEFFBFFFC0FFC1FFB7
:10214400C2FFC3FFC4FFC5FFC6FFC7FFC8FFC9FF67
:10215400CAFFCBFFCCFFCDFFCEFFCFFFD0FFD1FF17
:10216400D2FFD3FFD4FFD5FFD6FFD7FFD8FFD9FFC7
:10217400DAFFDBFFDDFFDEFFDFFFE0FFE1FFE2FF71
:10218400E3FFE4FFE5FFE6FFE7FFE8FFE9FFEAFF1F
:10219400EBFFECFFEDFFEEFFEFFFF0FFF1FFF2FFCF
:1021A400F3FFF4FFF5FFF6FFF7FFF8FFF9FFFAFF7F
:1021B400FBFFFCFFFDFFFEFFFFFF0000010002002C
:1021C40003000400050006000700080009000A00D7
:1021D4000B000C000D00ACFFADFFAEFFAFFFB0FF76
:1021E400B1FFB2FFB3FFB4FFB5FFB6FFB7FFB8FF4F
:1021F400B9FFBAFFBBFFBCFFBDFFBEFFBFFFC0FFFF
:10220400C1FFC2FFC3FFC4FFC5FFC6FFC7FFC8FFAE
:10221400C9FFCAFFCBFFCCFFCDFFCEFFCFFFD0FF5E
:10222400D1FFD2FFD3FFD4FFD5FFD6FFD7FFD8FF0E
:10223400D9FFDAFFDBFFDCFFDEFFDFFFE0FFE1FFBA
:10224400E2FFE3FFE4FFE5FFE6FFE7FFE8FFE9FF66
:10225400EAFFEBFFECFFEDFFEEFFEFFFF0FFF1FF16
:10226400F2FFF3FFF4FFF5FFF6FFF7FFF8FFF9FFC6
:10227400FAFFFBFFFCFFFDFFFEFFFFFF0000010074
:10228400020003000400050006000700080009001E
:102294000A000B000C000D000E00ADFFAEFFAFFFF7
:1022A400B0FFB1FFB2FFB3FFB4FFB5FFB6FFB7FF96
:1022B400B8FFB9FFBAFFBBFFBCFFBDFFBEFFBFFF46
:1022C400C0FFC1FFC2FFC3FFC4FFC5FFC6FFC7FFF6
:1022D400C8FFC9FFCAFFCBFFCCFFCDFFCEFFCFFFA6
:1022E400D0FFD1FFD2FFD3FFD4FFD5FFD6FFD7FF56
:1022F400D8FFD9FFDAFFDBFFDCFFDDFFDFFFE0FF04
:10230400E1FFE2FFE3FFE4FFE5FFE6FFE7FFE8FFAD
:10231400E9FFEAFFEBFFECFFEDFFEEFFEFFFF0FF5D
:10232400F1FFF2FFF3FFF4FFF5FFF6FFF7FFF8FF0D
:10233400F9FFFAFFFBFFFCFFFDFFFEFFFFFF0000BC
:102344000100020003000400050006000700080065
:1023540009000A000B000C000D000E000F00AEFF78
:10236400AFFFB0FFB1FFB2FFB3FFB4FFB5FFB6FFDD
:10237400B7FFB8FFB9FFBAFFBBFFBCFFBDFFBEFF8D
:10238400BFFFC0FFC1FFC2FFC3FFC4FFC5FFC6FF3D
:10239400C7FFC8FFC9FFCAFFCBFFCCFFCDFFCEFFED
:1023A400CFFFD0FFD1FFD2FFD3FFD4FFD5FFD6FF9D
:1023B400D7FFD8FFD9FFDAFFDBFFDCFFDDFFDEFF4D
:1023C400E0FFE1FFE2FFE3FFE4FFE5FFE6FFE7FFF5
:1023D400E8FFE9FFEAFFEBFFECFFEDFFEEFFEFFFA5
:1023E400F0FFF1FFF2FFF3FFF4FFF5FFF6FFF7FF55
:1023F400F8FFF9FFFAFFFBFFFCFFFDFFFEFFFFFF05
:1024040000000100020003000400050006000700AC
:10241400080009000A000B000C000D000E000F005C
:102424001000AFFFB0FFB1FFB2FFB3FFB4FFB5FFC1
:10243400B6FFB7FFB8FFB9FFBAFFBBFFBCFFBDFFD4
:10244400BEFFBFFFC0FFC1FFC2FFC3FFC4FFC5FF84
:10245400C6FFC7FFC8FFC9FFCAFFCBFFCCFFCDFF34
:10246400CEFFCFFFD0FFD1FFD2FFD3FFD4FFD5FFE4
:10247400D6FFD7FFD8FFD9FFDAFFDBFFDCFFDDFF94
:10248400DEFFDFFFE1FFE2FFE3FFE4FFE5FFE6FF3E
:10249400E7FFE8FFE9FFEAFFEBFFECFFEDFFEEFFEC
:1024A400EFFFF0FFF1FFF2FFF3FFF4FFF5FFF6FF9C
:1024B400F7FFF8FFF9FFFAFFFBFFFCFFFDFFFEFF4C
:1024C400FFFF0000010002000300040005000600F5
:1024D4000700080009000A000B000C000D000E00A4
:1024E4000F0010001100B0FFB1FFB2FFB3FFB4FF43
:1024F400B5FFB6FFB7FFB8FFB9FFBAFFBBFFBCFF1C
:10250400BDFFBEFFBFFFC0FFC1FFC2FFC3FFC4FFCB
:10251400C5FFC6FFC7FFC8FFC9FFCAFFCBFFCCFF7B
:10252400CDFFCEFFCFFFD0FFD1FFD2FFD3FFD4FF2B
:10253400D5FFD6FFD7FFD8FFD9FFDAFFDBFFDCFFDB
:10254400DDFFDEFFDFFFE0FFE2FFE3FFE4FFE5FF87
:10255400E6FFE7FFE8FFE9FFEAFFEBFFECFFEDFF33
:10256400EEFFEFFFF0FFF1FFF2FFF3FFF4FFF5FFE3
:10257400F6FFF7FFF8FFF9FFFAFFFBFFFCFFFDFF93
:10258400FEFFFFFF0000010002000300040005003D
:1025940006000700080009000A000B000C000D00EB
:1025A4000E000F00100011001200B1FFB2FFB3FFC4
:1025B400B4FFB5FFB6FFB7FFB8FFB9FFBAFFBBFF63
:1025C400BCFFBDFFBEFFBFFFC0FFC1FFC2FFC3FF13
:1025D400C4FFC5FFC6FFC7FFC8FFC9FFCAFFCBFFC3
:1025E400CCFFCDFFCEFFCFFFD0FFD1FFD2FFD3FF73
:1025F400D4FFD5FFD6FFD7FFD8FFD9FFDAFFDBFF23
:10260400DCFFDDFFDEFFDFFFE0FFE1FFE3FFE4FFD0
:10261400E5FFE6FFE7FFE8FFE9FFEAFFEBFFECFF7A
:10262400EDFFEEFFEFFFF0FFF1FFF2FFF3FFF4FF2A
:10263400F5FFF6FFF7FFF8FFF9FFFAFFFBFFFCFFDA
:10264400FDFFFEFFFFFF0000010002000300040085
:10265400050006000700080009000A000B000C0032
:102664000D000E000F001000110012001300B2FF45
:10267400B3FFB4FFB5FFB6FFB7FFB8FFB9FFBAFFAA
:10268400BBFFBCFFBDFFBEFFBFFFC0FFC1FFC2FF5A
:10269400C3FFC4FFC5FFC6FFC7FFC8FFC9FFCAFF0A
:1026A400CBFFCCFFCDFFCEFFCFFFD0FFD1FFD2FFBA
:1026B400D3FFD4FFD5FFD6FFD7FFD8FFD9FFDAFF6A
:1026C400DBFFDCFFDDFFDEFFDFFFE0FFE1FFE2FF1A
:1026D400E4FFE5FFE6FFE7FFE8FFE9FFEAFFEBFFC2
:1026E400ECFFEDFFEEFFEFFFF0FFF1FFF2FFF3FF72
:1026F400F4FFF5FFF6FFF7FFF8FFF9FFFAFFFBFF22
:10270400FCFFFDFFFEFFFFFF0000010002000300CD
:102714000400050006000700080009000A000B0079
:102724000C000D000E000F00100011001200130029
:102734001400B3FFB4FFB5FFB6FFB7FFB8FFB9FF8E
:10274400BAFFBBFFBCFFBDFFBEFFBFFFC0FFC1FFA1
:10275400C2FFC3FFC4FFC5FFC6FFC7FFC8FFC9FF51
:10276400CAFFCBFFCCFFCDFFCEFFCFFFD0FFD1FF01
:10277400D2FFD3FFD4FFD5FFD6FFD7FFD8FFD9FFB1
:10278400DAFFDBFFDCFFDDFFDEFFDFFFE0FFE1FF61
:10279400E2FFE3FFE5FFE6FFE7FFE8FFE9FFEAFF0B
:1027A400EBFFECFFEDFFEEFFEFFFF0FFF1FFF2FFB9
:1027B400F3FFF4FFF5FFF6FFF7FFF8FFF9FFFAFF69
:1027C400FBFFFCFFFDFFFEFFFFFF00000100020016
:1027D40003000400050006000700080009000A00C1
:1027E4000B000C000D000E000F0010001100120071
:1027F400130014001500B4FFB5FFB6FFB7FFB8FF10
:10280400B9FFBAFFBBFFBCFFBDFFBEFFBFFFC0FFE8
:10281400C1FFC2FFC3FFC4FFC5FFC6FFC7FFC8FF98
:10282400C9FFCAFFCBFFCCFFCDFFCEFFCFFFD0FF48
:10283400D1FFD2FFD3FFD4FFD5FFD6FFD7FFD8FFF8
:10284400D9FFDAFFDBFFDCFFDDFFDEFFDFFFE0FFA8
:10285400E1FFE2FFE3FFE4FFE6FFE7FFE8FFE9FF54
:10286400EAFFEBFFECFFEDFFEEFFEFFFF0FFF1FF00
:10287400F2FFF3FFF4FFF5FFF6FFF7FFF8FFF9FFB0
:10288400FAFFFBFFFCFFFDFFFEFFFFFF000001005E
:102894000200030004000500060007000800090008
:1028A4000A000B000C000D000E000F0010001100B8
:1028B40012001300140015001600B5FFB6FFB7FF91
:1028C400B8FFB9FFBAFFBBFFBCFFBDFFBEFFBFFF30
:1028D400C0FFC1FFC2FFC3FFC4FFC5FFC6FFC7FFE0
:1028E400C8FFC9FFCAFFCBFFCCFFCDFFCEFFCFFF90
:1028F400D0FFD1FFD2FFD3FFD4FFD5FFD6FFD7FF40
:10290400D8FFD9FFDAFFDBFFDCFFDDFFDEFFDFFFEF
:10291400E0FFE1FFE2FFE3FFE4FFE5FFE7FFE8FF9D
:10292400E9FFEAFFEBFFECFFEDFFEEFFEFFFF0FF47
:10293400F1FFF2FFF3FFF4FFF5FFF6FFF7FFF8FFF7
:10294400F9FFFAFFFBFFFCFFFDFFFEFFFFFF0000A6
:10295400010002000300040005000600070008004F
:1029640009000A000B000C000D000E000F001000FF
:102974001100120013001400150016001700B6FF12
:10298400B7FFB8FFB9FFBAFFBBFFBCFFBDFFBEFF77
:10299400BFFFC0FFC1FFC2FFC3FFC4FFC5FFC6FF27
:1029A400C7FFC8FFC9FFCAFFCBFFCCFFCDFFCEFFD7
:1029B400CFFFD0FFD1FFD2FFD3FFD4FFD5FFD6FF87
:1029C400D7FFD8FFD9FFDAFFDBFFDCFFDDFFDEFF37
:1029D400DFFFE0FFE1FFE2FFE3FFE4FFE5FFE6FFE7
:1029E400E8FFE9FFEAFFEBFFECFFEDFFEEFFEFFF8F
:1029F400F0FFF1FFF2FFF3FFF4FFF5FFF6FFF7FF3F
:102A0400F8FFF9FFFAFFFBFFFCFFFDFFFEFFFFFFEE
:102A14000000010002000300040005000600070096
:102A2400080009000A000B000C000D000E000F0046
:102A340010001100120013001400150016001700F6
:102A44001800B7FFB8FFB9FFBAFFBBFFBCFFBDFF5B
:102A5400BEFFBFFFC0FFC1FFC2FFC3FFC4FFC5FF6E
:102A6400C6FFC7FFC8FFC9FFCAFFCBFFCCFFCDFF1E
:102A7400CEFFCFFFD0FFD1FFD2FFD3FFD4FFD5FFCE
:102A8400D6FFD7FFD8FFD9FFDAFFDBFFDCFFDDFF7E
:102A9400DEFFDFFFE0FFE1FFE2FFE3FFE4FFE5FF2E
:102AA400E6FFE7FFE9FFEAFFEBFFECFFEDFFEEFFD8
:102AB400EFFFF0FFF1FFF2FFF3FFF4FFF5FFF6FF86
:102AC400F7FFF8FFF9FFFAFFFBFFFCFFFDFFFEFF36
:102AD400FFFF0000010002000300040005000600DF
:102AE4000700080009000A000B000C000D000E008E
:102AF4000F0010001100120013001400150016003E
:102B0400170018001900B8FFB9FFBAFFBBFFBCFFDC
:102B1400BDFFBEFFBFFFC0FFC1FFC2FFC3FFC4FFB5
:102B2400C5FFC6FFC7FFC8FFC9FFCAFFCBFFCCFF65
:102B3400CDFFCEFFCFFFD0FFD1FFD2FFD3FFD4FF15
:102B4400D5FFD6FFD7FFD8FFD9FFDAFFDBFFDCFFC5
:102B5400DDFFDEFFDFFFE0FFE1FFE2FFE3FFE4FF75
:102B6400E5FFE6FFE7FFE8FFEAFFEBFFECFFEDFF21
:102B7400EEFFEFFFF0FFF1FFF2FFF3FFF4FFF5FFCD
:102B8400F6FFF7FFF8FFF9FFFAFFFBFFFCFFFDFF7D
:102B9400FEFFFFFF00000100020003000400050027
:102BA40006000700080009000A000B000C000D00D5
:102BB4000E000F0010001100120013001400150085
:102BC40016001700180019001A00B9FFBAFFBBFF5E
:102BD400BCFFBDFFBEFFBFFFC0FFC1FFC2FFC3FFFD
:102BE400C4FFC5FFC6FFC7FFC8FFC9FFCAFFCBFFAD
:102BF400CCFFCDFFCEFFCFFFD0FFD1FFD2FFD3FF5D
:102C0400D4FFD5FFD6FFD7FFD8FFD9FFDAFFDBFF0C
:102C1400DCFFDDFFDEFFDFFFE0FFE1FFE2FFE3FFBC
:102C2400E4FFE5FFE6FFE7FFE8FFE9FFEBFFECFF6A
:102C3400EDFFEEFFEFFFF0FFF1FFF2FFF3FFF4FF14
:102C4400F5FFF6FFF7FFF8FFF9FFFAFFFBFFFCFFC4
:102C5400FDFFFEFFFFFF000001000200030004006F
:102C6400050006000700080009000A000B000C001C
:102C74000D000E000F0010001100120013001400CC
:102C8400150016001700180019001A001B00BAFFDF
:102C9400BBFFBCFFBDFFBEFFBFFFC0FFC1FFC2FF44
:102CA400C3FFC4FFC5FFC6FFC7FFC8FFC9FFCAFFF4
:102CB400CBFFCCFFCDFFCEFFCFFFD0FFD1FFD2FFA4
:102CC400D3FFD4FFD5FFD6FFD7FFD8FFD9FFDAFF54
:102CD400DBFFDCFFDDFFDEFFDFFFE0FFE1FFE2FF04
:102CE400E3FFE4FFE5FFE6FFE7FFE8FFE9FFEAFFB4
:102CF400ECFFEDFFEEFFEFFFF0FFF1FFF2FFF3FF5C
:102D0400F4FFF5FFF6FFF7FFF8FFF9FFFAFFFBFF0B
:102D1400FCFFFDFFFEFFFFFF0000010002000300B7
:102D24000400050006000700080009000A000B0063
:102D34000C000D000E000F00100011001200130013
:102D44001400150016001700180019001A001B00C3
:102D54001C00BBFFBCFFBDFFBEFFBFFFC0FFC1FF28
:102D6400C2FFC3FFC4FFC5FFC6FFC7FFC8FFC9FF3B
:102D7400CAFFCBFFCCFFCDFFCEFFCFFFD0FFD1FFEB
:102D8400D2FFD3FFD4FFD5FFD6FFD7FFD8FFD9FF9B
:102D9400DAFFDBFFDCFFDDFFDEFFDFFFE0FFE1FF4B
:102DA400E2FFE3FFE4FFE5FFE6FFE7FFE8FFE9FFFB
:102DB400EAFFEBFFEDFFEEFFEFFFF0FFF1FFF2FFA5
:102DC400F3FFF4FFF5FFF6FFF7FFF8FFF9FFFAFF53
:102DD400FBFFFCFFFDFFFEFFFFFF00000100020000
:102DE40003000400050006000700080009000A00AB
:102DF4000B000C000D000E000F001000110012005B
:102E040013001400150016001700180019001A000A
:102E14001B001C001D00BCFFBDFFBEFFBFFFC0FFA9
:102E2400C1FFC2FFC3FFC4FFC5FFC6FFC7FFC8FF82
:102E3400C9FFCAFFCBFFCCFFCDFFCEFFCFFFD0FF32
:102E4400D1FFD2FFD3FFD4FFD5FFD6FFD7FFD8FFE2
:102E5400D9FFDAFFDBFFDCFFDDFFDEFFDFFFE0FF92
:102E6400E1FFE2FFE3FFE4FFE5FFE6FFE7FFE8FF42
:102E7400E9FFEAFFEBFFECFFEEFFEFFFF0FFF1FFEE
:102E8400F2FFF3FFF4FFF5FFF6FFF7FFF8FFF9FF9A
:102E9400FAFFFBFFFCFFFDFFFEFFFFFF0000010048
:102EA40002000300040005000600070008000900F2
:102EB4000A000B000C000D000E000F0010001100A2
:102EC4001200130014001500160017001800190052
:102ED4001A001B001C001D001E00BDFFBEFFBFFF2B
:102EE400C0FFC1FFC2FFC3FFC4FFC5FFC6FFC7FFCA
:102EF400C8FFC9FFCAFFCBFFCCFFCDFFCEFFCFFF7A
:102F0400D0FFD1FFD2FFD3FFD4FFD5FFD6FFD7FF29
:102F1400D8FFD9FFDAFFDBFFDCFFDDFFDEFFDFFFD9
:102F2400E0FFE1FFE2FFE3FFE4FFE5FFE6FFE7FF89
:102F3400E8FFE9FFEAFFEBFFECFFEDFFEFFFF0FF37
:102F4400F1FFF2FFF3FFF4FFF5FFF6FFF7FFF8FFE1
:102F5400F9FFFAFFFBFFFCFFFDFFFEFFFFFF000090
:102F64000100020003000400050006000700080039
:102F740009000A000B000C000D000E000F001000E9
:102F84001100120013001400150016001700180099
:102F940019001A001B001C001D001E001F00BEFFAC
:102FA400BFFFC0FFC1FFC2FFC3FFC4FFC5FFC6FF11
:102FB400C7FFC8FFC9FFCAFFCBFFCCFFCDFFCEFFC1
:102FC400CFFFD0FFD1FFD2FFD3FFD4FFD5FFD6FF71
:102FD400D7FFD8FFD9FFDAFFDBFFDCFFDDFFDEFF21
:102FE400DFFFE0FFE1FFE2FFE3FFE4FFE5FFE6FFD1
:102FF400E7FFE8FFE9FFEAFFEBFFECFFEDFFEEFF81
:10300400F0FFF1FFF2FFF3FFF4FFF5FFF6FFF7FF28
:10301400F8FFF9FFFAFFFBFFFCFFFDFFFEFFFFFFD8
:103024000000010002000300040005000600070080
:10303400080009000A000B000C000D000E000F0030
:1030440010001100120013001400150016001700E0
:10305400180019001A001B001C001D001E001F0090
:103064002000BFFFC0FFC1FFC2FFC3FFC4FFC5FFF5
:10307400C6FFC7FFC8FFC9FFCAFFCBFFCCFFCDFF08
:10308400CEFFCFFFD0FFD1FFD2FFD3FFD4FFD5FFB8
:10309400D6FFD7FFD8FFD9FFDAFFDBFFDCFFDDFF68
:1030A400DEFFDFFFE0FFE1FFE2FFE3FFE4FFE5FF18
:1030B400E6FFE7FFE8FFE9FFEAFFEBFFECFFEDFFC8
:1030C400EEFFEFFFF1FFF2FFF3FFF4FFF5FFF6FF72
:1030D400F7FFF8FFF9FFFAFFFBFFFCFFFDFFFEFF20
:1030E400FFFF0000010002000300040005000600C9
:1030F4000700080009000A000B000C000D000E0078
:103104000F00100011001200130014001500160027
:103114001700180019001A001B001C001D001E00D7
:103124001F0020002100C0FFC1FFC2FFC3FFC4FF76
:10313400C5FFC6FFC7FFC8FFC9FFCAFFCBFFCCFF4F
:10314400CDFFCEFFCFFFD0FFD1FFD2FFD3FFD4FFFF
:10315400D5FFD6FFD7FFD8FFD9FFDAFFDBFFDCFFAF
:10316400DDFFDEFFDFFFE0FFE1FFE2FFE3FFE4FF5F
:10317400E5FFE6FFE7FFE8FFE9FFEAFFEBFFECFF0F
:10318400EDFFEEFFEFFFF0FFF2FFF3FFF4FFF5FFBB
:10319400F6FFF7FFF8FFF9FFFAFFFBFFFCFFFDFF67
:1031A400FEFFFFFF00000100020003000400050011
:1031B40006000700080009000A000B000C000D00BF
:1031C4000E000F001000110012001300140015006F
:1031D40016001700180019001A001B001C001D001F
:1031E4001E001F00200021002200C1FFC2FFC3FFF8
:1031F400C4FFC5FFC6FFC7FFC8FFC9FFCAFFCBFF97
:10320400CCFFCDFFCEFFCFFFD0FFD1FFD2FFD3FF46
:10321400D4FFD5FFD6FFD7FFD8FFD9FFDAFFDBFFF6
:10322400DCFFDDFFDEFFDFFFE0FFE1FFE2FFE3FFA6
:10323400E4FFE5FFE6FFE7FFE8FFE9FFEAFFEBFF56
:10324400ECFFEDFFEEFFEFFFF0FFF1FFF3FFF4FF04
:10325400F5FFF6FFF7FFF8FFF9FFFAFFFBFFFCFFAE
:10326400FDFFFEFFFFFF0000010002000300040059
:10327400050006000700080009000A000B000C0006
:103284000D000E000F0010001100120013001400B6
:10329400150016001700180019001A001B001C0066
:1032A4001D001E001F002000210022002300C2FF79
:1032B400C3FFC4FFC5FFC6FFC7FFC8FFC9FFCAFFDE
:1032C400CBFFCCFFCDFFCEFFCFFFD0FFD1FFD2FF8E
:1032D400D3FFD4FFD5FFD6FFD7FFD8FFD9FFDAFF3E
:1032E400DBFFDCFFDDFFDEFFDFFFE0FFE1FFE2FFEE
:1032F400E3FFE4FFE5FFE6FFE7FFE8FFE9FFEAFF9E
:10330400EBFFECFFEDFFEEFFEFFFF0FFF1FFF2FF4D
:10331400F4FFF5FFF6FFF7FFF8FFF9FFFAFFFBFFF5
:10332400FCFFFDFFFEFFFFFF0000010002000300A1
:103334000400050006000700080009000A000B004D
:103344000C000D000E000F001000110012001300FD
:103354001400150016001700180019001A001B00AD
:103364001C001D001E001F0020002100220023005D
:103374002400C3FFC4FFC5FFC6FFC7FFC8FFC9FFC2
:10338400CAFFCBFFCCFFCDFFCEFFCFFFD0FFD1FFD5
:10339400D2FFD3FFD4FFD5FFD6FFD7FFD8FFD9FF85
:1033A400DAFFDBFFDCFFDDFFDEFFDFFFE0FFE1FF35
:1033B400E2FFE3FFE4FFE5FFE6FFE7FFE8FFE9FFE5
:1033C400EAFFEBFFECFFEDFFEEFFEFFFF0FFF1FF95
:1033D400F2FFF3FFF5FFF6FFF7FFF8FFF9FFFAFF3F
:1033E400FBFFFCFFFDFFFEFFFFFF000001000200EA
:1033F40003000400050006000700080009000A0095
:103404000B000C000D000E000F0010001100120044
:1034140013001400150016001700180019001A00F4
:103424001B001C001D001E001F00200021002200A4
:10343400230024002500C4FFC5FFC6FFC7FFC8FF43
:10344400C9FFCAFFCBFFCCFFCDFFCEFFCFFFD0FF1C
:10345400D1FFD2FFD3FFD4FFD5FFD6FFD7FFD8FFCC
:10346400D9FFDAFFDBFFDCFFDDFFDEFFDFFFE0FF7C
:10347400E1FFE2FFE3FFE4FFE5FFE6FFE7FFE8FF2C
:10348400E9FFEAFFEBFFECFFEDFFEEFFEFFFF0FFDC
:10349400F1FFF2FFF3FFF4FFF6FFF7FFF8FFF9FF88
:1034A400FAFFFBFFFCFFFDFFFEFFFFFF0000010032
:1034B40002000300040005000600070008000900DC
:1034C4000A000B000C000D000E000F00100011008C
:1034D400120013001400150016001700180019003C
:1034E4001A001B001C001D001E001F0020002100EC
:1034F40022002300240025002600C5FFC6FFC7FFC5
:10350400C8FFC9FFCAFFCBFFCCFFCDFFCEFFCFFF63
:10351400D0FFD1FFD2FFD3FFD4FFD5FFD6FFD7FF13
:10352400D8FFD9FFDAFFDBFFDCFFDDFFDEFFDFFFC3
:10353400E0FFE1FFE2FFE3FFE4FFE5FFE6FFE7FF73
:10354400E8FFE9FFEAFFEBFFECFFEDFFEEFFEFFF23
:10355400F0FFF1FFF2FFF3FFF4FFF5FFF7FFF8FFD1
:10356400F9FFFAFFFBFFFCFFFDFFFEFFFFFF00007A
:103574000100020003000400050006000700080023
:1035840009000A000B000C000D000E000F001000D3
:103594001100120013001400150016001700180083
:1035A40019001A001B001C001D001E001F00200033
:1035B4002100220023002400250026002700C6FF46
:1035C400C7FFC8FFC9FFCAFFCBFFCCFFCDFFCEFFAB
:1035D400CFFFD0FFD1FFD2FFD3FFD4FFD5FFD6FF5B
:1035E400D7FFD8FFD9FFDAFFDBFFDCFFDDFFDEFF0B
:1035F400DFFFE0FFE1FFE2FFE3FFE4FFE5FFE6FFBB
:10360400E7FFE8FFE9FFEAFFEBFFECFFEDFFEEFF6A
:10361400EFFFF0FFF1FFF2FFF3FFF4FFF5FFF6FF1A
:10362400F8FFF9FFFAFFFBFFFCFFFDFFFEFFFFFFC2
:10363400000001000200030004000500060007006A
:10364400080009000A000B000C000D000E000F001A
:1036540010001100120013001400150016001700CA
:10366400180019001A001B001C001D001E001F007A
:10367400200021002200230024002500260027002A
:103684002800C7FFC8FFC9FFCAFFCBFFCCFFCDFF8F
:10369400CEFFCFFFD0FFD1FFD2FFD3FFD4FFD5FFA2
:1036A400D6FFD7FFD8FFD9FFDAFFDBFFDCFFDDFF52
:1036B400DEFFDFFFE0FFE1FFE2FFE3FFE4FFE5FF02
:1036C400E6FFE7FFE8FFE9FFEAFFEBFFECFFEDFFB2
:1036D400EEFFEFFFF0FFF1FFF2FFF3FFF4FFF5FF62
:1036E400F6FFF7FFF9FFFAFFFBFFFCFFFDFFFEFF0C
:1036F400FFFF0000010002000300040005000600B3
:103704000700080009000A000B000C000D000E0061
:103714000F00100011001200130014001500160011
:103724001700180019001A001B001C001D001E00C1
:103734001F00200021002200230024002500260071
:10374400270028002900C8FFC9FFCAFFCBFFCCFF10
:10375400CDFFCEFFCFFFD0FFD1FFD2FFD3FFD4FFE9
:10376400D5FFD6FFD7FFD8FFD9FFDAFFDBFFDCFF99
:10377400DDFFDEFFDFFFE0FFE1FFE2FFE3FFE4FF49
:10378400E5FFE6FFE7FFE8FFE9FFEAFFEBFFECFFF9
:10379400EDFFEEFFEFFFF0FFF1FFF2FFF3FFF4FFA9
:1037A400F5FFF6FFF7FFF8FFFAFFFBFFFCFFFDFF55
:1037B400FEFFFFFF000001000200030004000500FB
:1037C40006000700080009000A000B000C000D00A9
:1037D4000E000F0010001100120013001400150059
:1037E40016001700180019001A001B001C001D0009
:1037F4001E001F00200021002200230024002500B9
:1038040026002700280029002A00C9FFCAFFCBFF91
:10381400CCFFCDFFCEFFCFFFD0FFD1FFD2FFD3FF30
:10382400D4FFD5FFD6FFD7FFD8FFD9FFDAFFDBFFE0
:10383400DCFFDDFFDEFFDFFFE0FFE1FFE2FFE3FF90
:10384400E4FFE5FFE6FFE7FFE8FFE9FFEAFFEBFF40
:10385400ECFFEDFFEEFFEFFFF0FFF1FFF2FFF3FFF0
:10386400F4FFF5FFF6FFF7FFF8FFF9FFFBFFFCFF9E
:10387400FDFFFEFFFFFF0000010002000300040043
:10388400050006000700080009000A000B000C00F0
:103894000D000E000F0010001100120013001400A0
:1038A400150016001700180019001A001B001C0050
:1038B4001D001E001F002000210022002300240000
:1038C400250026002700280029002A002B00CAFF13
:1038D400CBFFCCFFCDFFCEFFCFFFD0FFD1FFD2FF78
:1038E400D3FFD4FFD5FFD6FFD7FFD8FFD9FFDAFF28
:1038F400DBFFDCFFDDFFDEFFDFFFE0FFE1FFE2FFD8
:10390400E3FFE4FFE5FFE6FFE7FFE8FFE9FFEAFF87
:10391400EBFFECFFEDFFEEFFEFFFF0FFF1FFF2FF37
:10392400F3FFF4FFF5FFF6FFF7FFF8FFF9FFFAFFE7
:10393400FCFFFDFFFEFFFFFF00000100020003008B
:103944000400050006000700080009000A000B0037
:103954000C000D000E000F001000110012001300E7
:103964001400150016001700180019001A001B0097
:103974001C001D001E001F00200021002200230047
:103984002400250026002700280029002A002B00F7
:103994002C00CBFFCCFFCDFFCEFFCFFFD0FFD1FF5C
:1039A400D2FFD3FFD4FFD5FFD6FFD7FFD8FFD9FF6F
:1039B400DAFFDBFFDCFFDDFFDEFFDFFFE0FFE1FF1F
:1039C400E2FFE3FFE4FFE5FFE6FFE7FFE8FFE9FFCF
:1039D400EAFFEBFFECFFEDFFEEFFEFFFF0FFF1FF7F
:1039E400F2FFF3FFF4FFF5FFF6FFF7FFF8FFF9FF2F
:1039F400FAFFFBFFFDFFFEFFFFFF000001000200D6
:103A040003000400050006000700080009000A007E
:103A14000B000C000D000E000F001000110012002E
:103A240013001400150016001700180019001A00DE
:103A34001B001C001D001E001F002000210022008E
:103A440023002400250026002700280029002A003E
:103A54002B002C002D00CCFFCDFFCEFFCFFFD0FFDD
:103A6400D1FFD2FFD3FFD4FFD5FFD6FFD7FFD8FFB6
:103A7400D9FFDAFFDBFFDCFFDDFFDEFFDFFFE0FF66
:103A8400E1FFE2FFE3FFE4FFE5FFE6FFE7FFE8FF16
:103A9400E9FFEAFFEBFFECFFEDFFEEFFEFFFF0FFC6
:103AA400F1FFF2FFF3FFF4FFF5FFF6FFF7FFF8FF76
:103AB400F9FFFAFFFBFFFCFFFEFFFFFF0000010020
:103AC40002000300040005000600070008000900C6
:103AD4000A000B000C000D000E000F001000110076
:103AE4001200130014001500160017001800190026
:103AF4001A001B001C001D001E001F0020002100D6
:103B04002200230024002500260027002800290085
:103B14002A002B002C002D002E00CDFFCEFFCFFF5E
:103B2400D0FFD1FFD2FFD3FFD4FFD5FFD6FFD7FFFD
:103B3400D8FFD9FFDAFFDBFFDCFFDDFFDEFFDFFFAD
:103B4400E0FFE1FFE2FFE3FFE4FFE5FFE6FFE7FF5D
:103B5400E8FFE9FFEAFFEBFFECFFEDFFEEFFEFFF0D
:103B6400F0FFF1FFF2FFF3FFF4FFF5FFF6FFF7FFBD
:103B7400F8FFF9FFFAFFFBFFFCFFFDFFFFFF00006A
:103B8400010002000300040005000600070008000D
:103B940009000A000B000C000D000E000F001000BD
:103BA400110012001300140015001600170018006D
:103BB40019001A001B001C001D001E001F0020001D
:103BC40021002200230024002500260027002800CD
:103BD40029002A002B002C002D002E002F00CEFFE0
:103BE400CFFFD0FFD1FFD2FFD3FFD4FFD5FFD6FF45
:103BF400D7FFD8FFD9FFDAFFDBFFDCFFDDFFDEFFF5
:103C0400DFFFE0FFE1FFE2FFE3FFE4FFE5FFE6FFA4
:103C1400E7FFE8FFE9FFEAFFEBFFECFFEDFFEEFF54
:103C2400EFFFF0FFF1FFF2FFF3FFF4FFF5FFF6FF04
:103C3400F7FFF8FFF9FFFAFFFBFFFCFFFDFFFEFFB4
:103C44000000010002000300040005000600070054
:103C5400080009000A000B000C000D000E000F0004
:103C640010001100120013001400150016001700B4
:103C7400180019001A001B001C001D001E001F0064
:103C84002000210022002300240025002600270014
:103C9400280029002A002B002C002D002E002F00C4
:103CA4003000D0FFD1FFD2FFD3FFD4FFD5FFD6FF22
:103CB400D7FFD8FFD9FFDAFFDBFFDCFFDDFFDEFF34
:103CC400DFFFE0FFE1FFE2FFE3FFE4FFE5FFE6FFE4
:103CD400E7FFE8FFE9FFEAFFEBFFECFFEDFFEEFF94
:103CE400EFFFF0FFF1FFF2FFF3FFF4FFF5FFF6FF44
:103CF400F7FFF8FFF9FFFAFFFBFFFCFFFDFFFEFFF4
:103D0400FFFF000002000300040005000600070096
:103D1400080009000A000B000C000D000E000F0043
:103D240010001100120013001400150016001700F3
:103D3400180019001A001B001C001D001E001F00A3
:103D44002000210022002300240025002600270053
:103D5400280029002A002B002C002D002E002F0003
:103D6400300031003200D1FFD2FFD3FFD4FFD5FFA2
:103D7400D6FFD7FFD8FFD9FFDAFFDBFFDCFFDDFF7B
:103D8400DEFFDFFFE0FFE1FFE2FFE3FFE4FFE5FF2B
:103D9400E6FFE7FFE8FFE9FFEAFFEBFFECFFEDFFDB
:103DA400EEFFEFFFF0FFF1FFF2FFF3FFF4FFF5FF8B
:103DB400F6FFF7FFF8FFF9FFFAFFFBFFFCFFFDFF3B
:103DC400FEFFFFFF000001000300040005000600E1
:103DD4000700080009000A000B000C000D000E008B
:103DE4000F0010001100120013001400150016003B
:103DF4001700180019001A001B001C001D001E00EB
:103E04001F0020002100220023002400250026009A
:103E14002700280029002A002B002C002D002E004A
:103E24002F003000310032003300D2FFD3FFD4FF23
:103E3400D5FFD6FFD7FFD8FFD9FFDAFFDBFFDCFFC2
:103E4400DDFFDEFFDFFFE0FFE1FFE2FFE3FFE4FF72
:103E5400E5FFE6FFE7FFE8FFE9FFEAFFEBFFECFF22
:103E6400EDFFEEFFEFFFF0FFF1FFF2FFF3FFF4FFD2
:103E7400F5FFF6FFF7FFF8FFF9FFFAFFFBFFFCFF82
:103E8400FDFFFEFFFFFF000001000200040005002B
:103E940006000700080009000A000B000C000D00D2
:103EA4000E000F0010001100120013001400150082
:103EB40016001700180019001A001B001C001D0032
:103EC4001E001F00200021002200230024002500E2
:103ED40026002700280029002A002B002C002D0092
:103EE4002E002F0030003100320033003400D3FFA5
:103EF400D4FFD5FFD6FFD7FFD8FFD9FFDAFFDBFF0A
:103F0400DCFFDDFFDEFFDFFFE0FFE1FFE2FFE3FFB9
:103F1400E4FFE5FFE6FFE7FFE8FFE9FFEAFFEBFF69
:103F2400ECFFEDFFEEFFEFFFF0FFF1FFF2FFF3FF19
:103F3400F4FFF5FFF6FFF7FFF8FFF9FFFAFFFBFFC9
:103F4400FCFFFDFFFEFFFFFF000001000200030075
:103F5400050006000700080009000A000B000C0019
:103F64000D000E000F0010001100120013001400C9
:103F7400150016001700180019001A001B001C0079
:103F84001D001E001F002000210022002300240029
:103F9400250026002700280029002A002B002C00D9
:103FA4002D002E002F003000310032003300340089
:103FB4003500D4FFD5FFD6FFD7FFD8FFD9FFDAFFEE
:103FC400DBFFDCFFDDFFDEFFDFFFE0FFE1FFE2FF01
:103FD400E3FFE4FFE5FFE6FFE7FFE8FFE9FFEAFFB1
:103FE400EBFFECFFEDFFEEFFEFFFF0FFF1FFF2FF61
:103FF400F3FFF4FFF5FFF6FFF7FFF8FFF9FFFAFF11
:10400400FBFFFCFFFDFFFEFFFFFF000001000200BD
:104014000300040006000700080009000A000B0062
:104024000C000D000E000F00100011001200130010
:104034001400150016001700180019001A001B00C0
:104044001C001D001E001F00200021002200230070
:104054002400250026002700280029002A002B0020
:104064002C002D002E002F003000310032003300D0
:10407400340035003600D5FFD6FFD7FFD8FFD9FF6F
:10408400DAFFDBFFDCFFDDFFDEFFDFFFE0FFE1FF48
:10409400E2FFE3FFE4FFE5FFE6FFE7FFE8FFE9FFF8
:1040A400EAFFEBFFECFFEDFFEEFFEFFFF0FFF1FFA8
:1040B400F2FFF3FFF4FFF5FFF6FFF7FFF8FFF9FF58
:1040C400FAFFFBFFFCFFFDFFFEFFFFFF0000010006
:1040D40002000300040005000700080009000A00AC
:1040E4000B000C000D000E000F0010001100120058
:1040F40013001400150016001700180019001A0008
:104104001B001C001D001E001F00200021002200B7
:1041140023002400250026002700280029002A0067
:104124002B002C002D002E002F0030003100320017
:1041340033003400350036003700D6FFD7FFD8FFF0
:10414400D9FFDAFFDBFFDCFFDDFFDEFFDFFFE0FF8F
:10415400E1FFE2FFE3FFE4FFE5FFE6FFE7FFE8FF3F
:10416400E9FFEAFFEBFFECFFEDFFEEFFEFFFF0FFEF
:10417400F1FFF2FFF3FFF4FFF5FFF6FFF7FFF8FF9F
:10418400F9FFFAFFFBFFFCFFFDFFFEFFFFFF00004E
:1041940001000200030004000500060008000900F5
:1041A4000A000B000C000D000E000F00100011009F
:1041B400120013001400150016001700180019004F
:1041C4001A001B001C001D001E001F0020002100FF
:1041D40022002300240025002600270028002900AF
:1041E4002A002B002C002D002E002F00300031005F
:1041F4003200330034003500360037003800D7FF72
:10420400D8FFD9FFDAFFDBFFDCFFDDFFDEFFDFFFD6
:10421400E0FFE1FFE2FFE3FFE4FFE5FFE6FFE7FF86
:10422400E8FFE9FFEAFFEBFFECFFEDFFEEFFEFFF36
:10423400F0FFF1FFF2FFF3FFF4FFF5FFF6FFF7FFE6
:10424400F8FFF9FFFAFFFBFFFCFFFDFFFEFFFFFF96
:10425400000001000200030004000500060007003E
:1042640009000A000B000C000D000E000F001000E6
:104274001100120013001400150016001700180096
:1042840019001A001B001C001D001E001F00200046
:1042940021002200230024002500260027002800F6
:1042A40029002A002B002C002D002E002F003000A6
:1042B4003100320033003400350036003700380056
:1042C4003900D8FFD9FFDAFFDBFFDCFFDDFFDEFFBB
:1042D400DFFFE0FFE1FFE2FFE3FFE4FFE5FFE6FFCE
:1042E400E7FFE8FFE9FFEAFFEBFFECFFEDFFEEFF7E
:1042F400EFFFF0FFF1FFF2FFF3FFF4FFF5FFF6FF2E
:10430400F7FFF8FFF9FFFAFFFBFFFCFFFDFFFEFFDD
:10431400FFFF000001000200030004000500060086
:10432400070008000A000B000C000D000E000F002F
:1043340010001100120013001400150016001700DD
:10434400180019001A001B001C001D001E001F008D
:10435400200021002200230024002500260027003D
:10436400280029002A002B002C002D002E002F00ED
:10437400300031003200330034003500360037009D
:10438400380039003A00D9FFDAFFDBFFDCFFDDFF3C
:10439400DEFFDFFFE0FFE1FFE2FFE3FFE4FFE5FF15
:1043A400E6FFE7FFE8FFE9FFEAFFEBFFECFFEDFFC5
:1043B400EEFFEFFFF0FFF1FFF2FFF3FFF4FFF5FF75
:1043C400F6FFF7FFF8FFF9FFFAFFFBFFFCFFFDFF25
:1043D400FEFFFFFF000001000200030004000500CF
:1043E40006000700080009000B000C000D000E0079
:1043F4000F00100011001200130014001500160025
:104404001700180019001A001B001C001D001E00D4
:104414001F00200021002200230024002500260084
:104424002700280029002A002B002C002D002E0034
:104434002F003000310032003300340035003600E4
:104444003700380039003A003B00DAFFDBFFDCFFBD
:10445400DDFFDEFFDFFFE0FFE1FFE2FFE3FFE4FF5C
:10446400E5FFE6FFE7FFE8FFE9FFEAFFEBFFECFF0C
:10447400EDFFEEFFEFFFF0FFF1FFF2FFF3FFF4FFBC
:10448400F5FFF6FFF7FFF8FFF9FFFAFFFBFFFCFF6C
:10449400FDFFFEFFFFFF0000010002000300040017
:1044A400050006000700080009000A000C000D00C2
:1044B4000E000F001000110012001300140015006C
:1044C40016001700180019001A001B001C001D001C
:1044D4001E001F00200021002200230024002500CC
:1044E40026002700280029002A002B002C002D007C
:1044F4002E002F003000310032003300340035002C
:1045040036003700380039003A003B003C00DBFF3E
:10451400DCFFDDFFDEFFDFFFE0FFE1FFE2FFE3FFA3
:10452400E4FFE5FFE6FFE7FFE8FFE9FFEAFFEBFF53
:10453400ECFFEDFFEEFFEFFFF0FFF1FFF2FFF3FF03
:10454400F4FFF5FFF6FFF7FFF8FFF9FFFAFFFBFFB3
:10455400FCFFFDFFFEFFFFFF00000100020003005F
:104564000400050006000700080009000A000B000B
:104574000D000E000F0010001100120013001400B3
:10458400150016001700180019001A001B001C0063
:104594001D001E001F002000210022002300240013
:1045A400250026002700280029002A002B002C00C3
:1045B4002D002E002F003000310032003300340073
:1045C400350036003700380039003A003B003C0023
:1045D4003D00DCFFDDFFDEFFDFFFE0FFE1FFE2FF88
:1045E400E3FFE4FFE5FFE6FFE7FFE8FFE9FFEAFF9B
:1045F400EBFFECFFEDFFEEFFEFFFF0FFF1FFF2FF4B
:10460400F3FFF4FFF5FFF6FFF7FFF8FFF9FFFAFFFA
:10461400FBFFFCFFFDFFFEFFFFFF000001000200A7
:1046240003000400050006000700080009000A0052
:104634000B000C000E000F001000110012001300FC
:104644001400150016001700180019001A001B00AA
:104654001C001D001E001F0020002100220023005A
:104664002400250026002700280029002A002B000A
:104674002C002D002E002F003000310032003300BA
:104684003400350036003700380039003A003B006A
:104694003C003D003E00DDFFDEFFDFFFE0FFE1FF09
:1046A400E2FFE3FFE4FFE5FFE6FFE7FFE8FFE9FFE2
:1046B400EAFFEBFFECFFEDFFEEFFEFFFF0FFF1FF92
:1046C400F2FFF3FFF4FFF5FFF6FFF7FFF8FFF9FF42
:1046D400FAFFFBFFFCFFFDFFFEFFFFFF00000100F0
:1046E400020003000400050006000700080009009A
:1046F4000A000B000C000D000F0010001100120046
:1047040013001400150016001700180019001A00F1
:104714001B001C001D001E001F00200021002200A1
:1047240023002400250026002700280029002A0051
:104734002B002C002D002E002F0030003100320001
:1047440033003400350036003700380039003A00B1
:104754003B003C003D003E003F00DEFFDFFFE0FF8A
:10476400E1FFE2FFE3FFE4FFE5FFE6FFE7FFE8FF29
:10477400E9FFEAFFEBFFECFFEDFFEEFFEFFFF0FFD9
:10478400F1FFF2FFF3FFF4FFF5FFF6FFF7FFF8FF89
:10479400F9FFFAFFFBFFFCFFFDFFFEFFFFFF000038
:1047A40001000200030004000500060007000800E1
:1047B40009000A000B000C000D000E00100011008F
:1047C4001200130014001500160017001800190039
:1047D4001A001B001C001D001E001F0020002100E9
:1047E4002200230024002500260027002800290099
:1047F4002A002B002C002D002E002F003000310049
:1048040032003300340035003600370038003900F8
:104814003A003B003C003D003E003F004000DFFF0B
:10482400E0FFE1FFE2FFE3FFE4FFE5FFE6FFE7FF70
:10483400E8FFE9FFEAFFEBFFECFFEDFFEEFFEFFF20
:10484400F0FFF1FFF2FFF3FFF4FFF5FFF6FFF7FFD0
:10485400F8FFF9FFFAFFFBFFFCFFFDFFFEFFFFFF80
:104864000000010002000300040005000600070028
:10487400080009000A000B000C000D000E000F00D8
:104884001100120013001400150016001700180080
:1048940019001A001B001C001D001E001F00200030
:1048A40021002200230024002500260027002800E0
:1048B40029002A002B002C002D002E002F00300090
:1048C4003100320033003400350036003700380040
:1048D40039003A003B003C003D003E003F004000F0
:1048E4004100E0FFE1FFE2FFE3FFE4FFE5FFE6FF55
:1048F400E7FFE8FFE9FFEAFFEBFFECFFEDFFEEFF68
:10490400EFFFF0FFF1FFF2FFF3FFF4FFF5FFF6FF17
:10491400F7FFF8FFF9FFFAFFFBFFFCFFFDFFFEFFC7
:10492400FFFF000001000200030004000500060070
:104934000700080009000A000B000C000D000E001F
:104944000F001000120013001400150016001700C9
:10495400180019001A001B001C001D001E001F0077
:104964002000210022002300240025002600270027
:10497400280029002A002B002C002D002E002F00D7
:104984003000310032003300340035003600370087
:10499400380039003A003B003C003D003E003F0037
:1049A400400041004200E1FFE2FFE3FFE4FFE5FFD6
:1049B400E6FFE7FFE8FFE9FFEAFFEBFFECFFEDFFAF
:1049C400EEFFEFFFF0FFF1FFF2FFF3FFF4FFF5FF5F
:1049D400F6FFF7FFF8FFF9FFFAFFFBFFFCFFFDFF0F
:1049E400FEFFFFFF000001000200030004000500B9
:1049F40006000700080009000A000B000C000D0067
:104A04000E000F0010001100130014001500160012
:104A14001700180019001A001B001C001D001E00BE
:104A24001F0020002100220023002400250026006E
:104A34002700280029002A002B002C002D002E001E
:104A44002F003000310032003300340035003600CE
:104A54003700380039003A003B003C003D003E007E
:104A64003F004000410042004300E2FFE3FFE4FF57
:104A7400E5FFE6FFE7FFE8FFE9FFEAFFEBFFECFFF6
:104A8400EDFFEEFFEFFFF0FFF1FFF2FFF3FFF4FFA6
:104A9400F5FFF6FFF7FFF8FFF9FFFAFFFBFFFCFF56
:104AA400FDFFFEFFFFFF0000010002000300040001
:104AB400050006000700080009000A000B000C00AE
:104AC4000D000E000F00100011001200140015005C
:104AD40016001700180019001A001B001C001D0006
:104AE4001E001F00200021002200230024002500B6
:104AF40026002700280029002A002B002C002D0066
:104B04002E002F0030003100320033003400350015
:104B140036003700380039003A003B003C003D00C5
:104B24003E003F0040004100420043004400E3FFD8
:104B3400E4FFE5FFE6FFE7FFE8FFE9FFEAFFEBFF3D
:104B4400ECFFEDFFEEFFEFFFF0FFF1FFF2FFF3FFED
:104B5400F4FFF5FFF6FFF7FFF8FFF9FFFAFFFBFF9D
:104B6400FCFFFDFFFEFFFFFF000001000200030049
:104B74000400050006000700080009000A000B00F5
:104B84000C000D000E000F001000110012001300A5
:104B9400150016001700180019001A001B001C004D
:104BA4001D001E001F0020002100220023002400FD
:104BB400250026002700280029002A002B002C00AD
:104BC4002D002E002F00300031003200330034005D
:104BD400350036003700380039003A003B003C000D
:104BE4003D003E003F0040004100420043004400BD
:104BF4004500E4FFE5FFE6FFE7FFE8FFE9FFEAFF22
:104C0400EBFFECFFEDFFEEFFEFFFF0FFF1FFF2FF34
:104C1400F3FFF4FFF5FFF6FFF7FFF8FFF9FFFAFFE4
:104C2400FBFFFCFFFDFFFEFFFFFF00000100020091
:104C340003000400050006000700080009000A003C
:104C44000B000C000D000E000F00100011001200EC
:104C54001300140016001700180019001A001B0096
:104C64001C001D001E001F00200021002200230044
:104C74002400250026002700280029002A002B00F4
:104C84002C002D002E002F003000310032003300A4
:104C94003400350036003700380039003A003B0054
:104CA4003C003D003E003F00400041004200430004
:104CB400440045004600E5FFE6FFE7FFE8FFE9FFA3
:104CC400EAFFEBFFECFFEDFFEEFFEFFFF0FFF1FF7C
:104CD400F2FFF3FFF4FFF5FFF6FFF7FFF8FFF9FF2C
:104CE400FAFFFBFFFCFFFDFFFEFFFFFF00000100DA
:104CF4000200030004000500060007000800090084
:104D04000A000B000C000D000E000F001000110033
:104D140012001300140015001700180019001A00DF
:104D24001B001C001D001E001F002000210022008B
:104D340023002400250026002700280029002A003B
:104D44002B002C002D002E002F00300031003200EB
:104D540033003400350036003700380039003A009B
:104D64003B003C003D003E003F004000410042004B
:104D740043004400450046004700E6FFE7FFE8FF24
:104D8400E9FFEAFFEBFFECFFEDFFEEFFEFFFF0FFC3
:104D9400F1FFF2FFF3FFF4FFF5FFF6FFF7FFF8FF73
:104DA400F9FFFAFFFBFFFCFFFDFFFEFFFFFF000022
:104DB40001000200030004000500060007000800CB
:104DC40009000A000B000C000D000E000F0010007B
:104DD4001100120013001400150016001800190029
:104DE4001A001B001C001D001E001F0020002100D3
:104DF4002200230024002500260027002800290083
:104E04002A002B002C002D002E002F003000310032
:104E140032003300340035003600370038003900E2
:104E24003A003B003C003D003E003F004000410092
:104E34004200430044004500460047004800E7FFA5
:104E4400E8FFE9FFEAFFEBFFECFFEDFFEEFFEFFF0A
:104E5400F0FFF1FFF2FFF3FFF4FFF5FFF6FFF7FFBA
:104E6400F8FFF9FFFAFFFBFFFCFFFDFFFEFFFFFF6A
:104E74000000010002000300040005000600070012
:104E8400080009000A000B000C000D000E000F00C2
:104E94001000110012001300140015001600170072
:104EA40019001A001B001C001D001E001F0020001A
:104EB40021002200230024002500260027002800CA
:104EC40029002A002B002C002D002E002F0030007A
:104ED400310032003300340035003600370038002A
:104EE40039003A003B003C003D003E003F004000DA
:104EF400410042004300440045004600470048008A
:104F04004900E8FFE9FFEAFFEBFFECFFEDFFEEFFEE
:104F1400EFFFF0FFF1FFF2FFF3FFF4FFF5FFF6FF01
:104F2400F7FFF8FFF9FFFAFFFBFFFCFFFDFFFEFFB1
:104F3400FFFF00000100020003000400050006005A
:104F44000700080009000A000B000C000D000E0009
:104F54000F001000110012001300140015001600B9
:104F6400170018001A001B001C001D001E001F0063
:104F74002000210022002300240025002600270011
:104F8400280029002A002B002C002D002E002F00C1
:104F94003000310032003300340035003600370071
:104FA400380039003A003B003C003D003E003F0021
:104FB40040004100420043004400450046004700D1
:104FC400480049004A00E9FFEAFFEBFFECFFEDFF70
:104FD400EEFFEFFFF0FFF1FFF2FFF3FFF4FFF5FF49
:104FE400F6FFF7FFF8FFF9FFFAFFFBFFFCFFFDFFF9
:104FF400FEFFFFFF000001000200030004000500A3
:1050040006000700080009000A000B000C000D0050
:105014000E000F0010001100120013001400150000
:1050240016001700180019001B001C001D001E00AC
:105034001F00200021002200230024002500260058
:105044002700280029002A002B002C002D002E0008
:105054002F003000310032003300340035003600B8
:105064003700380039003A003B003C003D003E0068
:105074003F00400041004200430044004500460018
:105084004700480049004A004B00EAFFEBFFECFFF1
:10509400EDFFEEFFEFFFF0FFF1FFF2FFF3FFF4FF90
:1050A400F5FFF6FFF7FFF8FFF9FFFAFFFBFFFCFF40
:1050B400FDFFFEFFFFFF00000100020003000400EB
:1050C400050006000700080009000A000B000C0098
:1050D4000D000E000F001000110012001300140048
:1050E400150016001700180019001A001C001D00F6
:1050F4001E001F00200021002200230024002500A0
:1051040026002700280029002A002B002C002D004F
:105114002E002F00300031003200330034003500FF
:1051240036003700380039003A003B003C003D00AF
:105134003E003F004000410042004300440045005F
:1051440046004700480049004A004B004C00EBFF72
:10515400ECFFEDFFEEFFEFFFF0FFF1FFF2FFF3FFD7
:10516400F4FFF5FFF6FFF7FFF8FFF9FFFAFFFBFF87
:10517400FCFFFDFFFEFFFFFF000001000200030033
:105184000400050006000700080009000A000B00DF
:105194000C000D000E000F0010001100120013008F
:1051A4001400150016001700180019001A001B003F
:1051B4001D001E001F0020002100220023002400E7
:1051C400250026002700280029002A002B002C0097
:1051D4002D002E002F003000310032003300340047
:1051E400350036003700380039003A003B003C00F7
:1051F4003D003E003F0040004100420043004400A7
:10520400450046004700480049004A004B004C0056
:105214004D00ECFFEDFFEEFFEFFFF0FFF1FFF2FFBB
:10522400F3FFF4FFF5FFF6FFF7FFF8FFF9FFFAFFCE
:10523400FBFFFCFFFDFFFEFFFFFF0000010002007B
:1052440003000400050006000700080009000A0026
:105254000B000C000D000E000F00100011001200D6
:1052640013001400150016001700180019001A0086
:105274001B001C001E001F00200021002200230030
:105284002400250026002700280029002A002B00DE
:105294002C002D002E002F0030003100320033008E
:1052A4003400350036003700380039003A003B003E
:1052B4003C003D003E003F004000410042004300EE
:1052C4004400450046004700480049004A004B009E
:1052D4004C004D004E00EDFFEEFFEFFFF0FFF1FF3D
:1052E400F2FFF3FFF4FFF5FFF6FFF7FFF8FFF9FF16
:1052F400FAFFFBFFFCFFFDFFFEFFFFFF00000100C4
:10530400020003000400050006000700080009006D
:105314000A000B000C000D000E000F00100011001D
:1053240012001300140015001600170018001900CD
:105334001A001B001C001D001F0020002100220079
:1053440023002400250026002700280029002A0025
:105354002B002C002D002E002F00300031003200D5
:1053640033003400350036003700380039003A0085
:105374003B003C003D003E003F0040004100420035
:1053840043004400450046004700480049004A00E5
:105394004B004C004D004E004F00EEFFEFFFF0FFBE
:1053A400F1FFF2FFF3FFF4FFF5FFF6FFF7FFF8FF5D
:1053B400F9FFFAFFFBFFFCFFFDFFFEFFFFFF00000C
:1053C40001000200030004000500060007000800B5
:1053D40009000A000B000C000D000E000F00100065
:1053E4001100120013001400150016001700180015
:1053F40019001A001B001C001D001E0020002100C3
:10540400220023002400250026002700280029006C
:105414002A002B002C002D002E002F00300031001C
:1054240032003300340035003600370038003900CC
:105434003A003B003C003D003E003F00400041007C
:10544400420043004400450046004700480049002C
:105454004A004B004C004D004E004F005000EFFF3F
:10546400F0FFF1FFF2FFF3FFF4FFF5FFF6FFF7FFA4
:10547400F8FFF9FFFAFFFBFFFCFFFDFFFEFFFFFF54
:1054840000000100020003000400050006000700FC
:10549400080009000A000B000C000D000E000F00AC
:1054A400100011001200130014001500160017005C
:1054B400180019001A001B001C001D001E001F000C
:1054C40021002200230024002500260027002800B4
:1054D40029002A002B002C002D002E002F00300064
:1054E4003100320033003400350036003700380014
:1054F40039003A003B003C003D003E003F004000C4
:105504004100420043004400450046004700480073
:1055140049004A004B004C004D004E004F00500023
:105524005100F0FFF1FFF2FFF3FFF4FFF5FFF6FF88
:10553400F7FFF8FFF9FFFAFFFBFFFCFFFDFFFEFF9B
:10554400FFFF000001000200030004000500060044
:105554000700080009000A000B000C000D000E00F3
:105564000F001000110012001300140015001600A3
:105574001700180019001A001B001C001D001E0053
:105584001F002000220023002400250026002700FD
:10559400280029002A002B002C002D002E002F00AB
:1055A400300031003200330034003500360037005B
:1055B400380039003A003B003C003D003E003F000B
:1055C40040004100420043004400450046004700BB
:1055D400480049004A004B004C004D004E004F006B
:1055E400500051005200F1FFF2FFF3FFF4FFF5FF0A
:1055F400F6FFF7FFF8FFF9FFFAFFFBFFFCFFFDFFE3
:10560400FEFFFFFF0000010002000300040005008C
:1056140006000700080009000A000B000C000D003A
:105624000E000F00100011001200130014001500EA
:1056340016001700180019001A001B001C001D009A
:105644001E001F0020002100230024002500260046
:105654002700280029002A002B002C002D002E00F2
:105664002F003000310032003300340035003600A2
:105674003700380039003A003B003C003D003E0052
:105684003F00400041004200430044004500460002
:105694004700480049004A004B004C004D004E00B2
:1056A4004F005000510052005300F2FFF3FFF4FF8B
:1056B400F5FFF6FFF7FFF8FFF9FFFAFFFBFFFCFF2A
:1056C400FDFFFEFFFFFF00000100020003000400D5
:1056D400050006000700080009000A000B000C0082
:1056E4000D000E000F001000110012001300140032
:1056F400150016001700180019001A001B001C00E2
:105704001D001E001F00200021002200240025008F
:1057140026002700280029002A002B002C002D0039
:105724002E002F00300031003200330034003500E9
:1057340036003700380039003A003B003C003D0099
:105744003E003F0040004100420043004400450049
:1057540046004700480049004A004B004C004D00F9
:105764004E004F0050005100520053005400F3FF0C
:10577400F4FFF5FFF6FFF7FFF8FFF9FFFAFFFBFF71
:10578400FCFFFDFFFEFFFFFF00000100020003001D
:105794000400050006000700080009000A000B00C9
:1057A4000C000D000E000F00100011001200130079
:1057B4001400150016001700180019001A001B0029
:1057C4001C001D001E001F002000210022002300D9
:1057D400250026002700280029002A002B002C0081
:1057E4002D002E002F003000310032003300340031
:1057F400350036003700380039003A003B003C00E1
:105804003D003E003F004000410042004300440090
:10581400450046004700480049004A004B004C0040
:105824004D004E004F0050005100520053005400F0
:105834005500F4FFF5FFF6FFF7FFF8FFF9FFFAFF55
:10584400FBFFFCFFFDFFFEFFFFFF00000100020065
:1058540003000400050006000700080009000A0010
:105864000B000C000D000E000F00100011001200C0
:1058740013001400150016001700180019001A0070
:105884001B001C001D001E001F0020002100220020
:105894002300240026002700280029002A002B00CA
:1058A4002C002D002E002F00300031003200330078
:1058B4003400350036003700380039003A003B0028
:1058C4003C003D003E003F004000410042004300D8
:1058D4004400450046004700480049004A004B0088
:1058E4004C004D004E004F00500051005200530038
:1058F400540055005600F5FFF6FFF7FFF8FFF9FFD7
:10590400FAFFFBFFFCFFFDFFFEFFFFFF00000100AD
:105914000200030004000500060007000800090057
:105924000A000B000C000D000E000F001000110007
:1059340012001300140015001600170018001900B7
:105944001A001B001C001D001E001F002000210067
:1059540022002300240025002700280029002A0013
:105964002B002C002D002E002F00300031003200BF
:1059740033003400350036003700380039003A006F
:105984003B003C003D003E003F004000410042001F
:1059940043004400450046004700480049004A00CF
:1059A4004B004C004D004E004F005000510052007F
:1059B40053005400550056005700F6FFF7FFF8FF58
:1059C400F9FFFAFFFBFFFCFFFDFFFEFFFFFF0000F6
:1059D400010002000300040005000600070008009F
:1059E40009000A000B000C000D000E000F0010004F
:1059F40011001200130014001500160017001800FF
:105A040019001A001B001C001D001E001F002000AE
:105A1400210022002300240025002600280029005C
:105A24002A002B002C002D002E002F003000310006
:105A340032003300340035003600370038003900B6
:105A44003A003B003C003D003E003F004000410066
:105A54004200430044004500460047004800490016
:105A64004A004B004C004D004E004F0050005100C6
:105A74005200530054005500560057005800F7FFD9
:105A8400F8FFF9FFFAFFFBFFFCFFFDFFFEFFFFFF3E
:105A940000000100020003000400050006000700E6
:105AA400080009000A000B000C000D000E000F0096
:105AB4001000110012001300140015001600170046
:105AC400180019001A001B001C001D001E001F00F6
